{
  "address": "0x5Bb5908dcCC9Bb0fC39a78CfDf9e47B4C08E9521",
  "abi": [
    {
      "inputs": [],
      "name": "ExistentialNFT_TransferIsNotAllowed",
      "type": "error"
    },
    {
      "anonymous": false,
      "inputs": [
        {
          "indexed": true,
          "internalType": "address",
          "name": "owner",
          "type": "address"
        },
        {
          "indexed": true,
          "internalType": "address",
          "name": "approved",
          "type": "address"
        },
        {
          "indexed": true,
          "internalType": "uint256",
          "name": "tokenId",
          "type": "uint256"
        }
      ],
      "name": "Approval",
      "type": "event"
    },
    {
      "anonymous": false,
      "inputs": [
        {
          "indexed": true,
          "internalType": "address",
          "name": "owner",
          "type": "address"
        },
        {
          "indexed": true,
          "internalType": "address",
          "name": "operator",
          "type": "address"
        },
        {
          "indexed": false,
          "internalType": "bool",
          "name": "approved",
          "type": "bool"
        }
      ],
      "name": "ApprovalForAll",
      "type": "event"
    },
    {
      "anonymous": false,
      "inputs": [
        {
          "indexed": false,
          "internalType": "uint8",
          "name": "version",
          "type": "uint8"
        }
      ],
      "name": "Initialized",
      "type": "event"
    },
    {
      "anonymous": false,
      "inputs": [
        {
          "indexed": true,
          "internalType": "address",
          "name": "from",
          "type": "address"
        },
        {
          "indexed": true,
          "internalType": "address",
          "name": "to",
          "type": "address"
        },
        {
          "indexed": true,
          "internalType": "uint256",
          "name": "tokenId",
          "type": "uint256"
        }
      ],
      "name": "Transfer",
      "type": "event"
    },
    {
      "inputs": [
        {
          "internalType": "address",
          "name": "to",
          "type": "address"
        },
        {
          "internalType": "uint256",
          "name": "tokenId",
          "type": "uint256"
        }
      ],
      "name": "approve",
      "outputs": [],
      "stateMutability": "nonpayable",
      "type": "function"
    },
    {
      "inputs": [
        {
          "internalType": "address",
          "name": "owner",
          "type": "address"
        }
      ],
      "name": "balanceOf",
      "outputs": [
        {
          "internalType": "uint256",
          "name": "",
          "type": "uint256"
        }
      ],
      "stateMutability": "view",
      "type": "function"
    },
    {
      "inputs": [
        {
          "internalType": "uint256",
          "name": "tokenId",
          "type": "uint256"
        }
      ],
      "name": "getApproved",
      "outputs": [
        {
          "internalType": "address",
          "name": "",
          "type": "address"
        }
      ],
      "stateMutability": "view",
      "type": "function"
    },
    {
      "inputs": [
        {
          "internalType": "address",
          "name": "owner",
          "type": "address"
        }
      ],
      "name": "getPaymentOptionFor",
      "outputs": [
        {
          "components": [
            {
              "internalType": "contract ISuperToken",
              "name": "incomingFlowToken",
              "type": "address"
            },
            {
              "internalType": "address",
              "name": "recipient",
              "type": "address"
            },
            {
              "internalType": "int96",
              "name": "requiredFlowRate",
              "type": "int96"
            }
          ],
          "internalType": "struct PaymentOption",
          "name": "result",
          "type": "tuple"
        }
      ],
      "stateMutability": "view",
      "type": "function"
    },
    {
      "inputs": [],
      "name": "getPaymentOptions",
      "outputs": [
        {
          "components": [
            {
              "internalType": "contract ISuperToken",
              "name": "incomingFlowToken",
              "type": "address"
            },
            {
              "internalType": "address",
              "name": "recipient",
              "type": "address"
            },
            {
              "internalType": "int96",
              "name": "requiredFlowRate",
              "type": "int96"
            }
          ],
          "internalType": "struct PaymentOption[]",
          "name": "",
          "type": "tuple[]"
        }
      ],
      "stateMutability": "view",
      "type": "function"
    },
    {
      "inputs": [
        {
          "internalType": "contract ISuperToken[]",
          "name": "incomingFlowTokens",
          "type": "address[]"
        },
        {
          "internalType": "address[]",
          "name": "recipients",
          "type": "address[]"
        },
        {
          "internalType": "int96[]",
          "name": "requiredFlowRates",
          "type": "int96[]"
        },
        {
          "internalType": "string",
          "name": "name",
          "type": "string"
        },
        {
          "internalType": "string",
          "name": "symbol",
          "type": "string"
        },
        {
          "internalType": "string",
          "name": "globalTokenURI",
          "type": "string"
        }
      ],
      "name": "initialize",
      "outputs": [],
      "stateMutability": "nonpayable",
      "type": "function"
    },
    {
      "inputs": [
        {
          "internalType": "address",
          "name": "owner",
          "type": "address"
        },
        {
          "internalType": "address",
          "name": "operator",
          "type": "address"
        }
      ],
      "name": "isApprovedForAll",
      "outputs": [
        {
          "internalType": "bool",
          "name": "",
          "type": "bool"
        }
      ],
      "stateMutability": "view",
      "type": "function"
    },
    {
      "inputs": [],
      "name": "name",
      "outputs": [
        {
          "internalType": "string",
          "name": "",
          "type": "string"
        }
      ],
      "stateMutability": "view",
      "type": "function"
    },
    {
      "inputs": [
        {
          "internalType": "uint256",
          "name": "tokenId",
          "type": "uint256"
        }
      ],
      "name": "ownerOf",
      "outputs": [
        {
          "internalType": "address",
          "name": "",
          "type": "address"
        }
      ],
      "stateMutability": "view",
      "type": "function"
    },
    {
      "inputs": [
        {
          "internalType": "address",
          "name": "",
          "type": "address"
        },
        {
          "internalType": "address",
          "name": "",
          "type": "address"
        },
        {
          "internalType": "uint256",
          "name": "",
          "type": "uint256"
        }
      ],
      "name": "safeTransferFrom",
      "outputs": [],
      "stateMutability": "pure",
      "type": "function"
    },
    {
      "inputs": [
        {
          "internalType": "address",
          "name": "",
          "type": "address"
        },
        {
          "internalType": "address",
          "name": "",
          "type": "address"
        },
        {
          "internalType": "uint256",
          "name": "",
          "type": "uint256"
        },
        {
          "internalType": "bytes",
          "name": "",
          "type": "bytes"
        }
      ],
      "name": "safeTransferFrom",
      "outputs": [],
      "stateMutability": "pure",
      "type": "function"
    },
    {
      "inputs": [
        {
          "internalType": "address",
          "name": "operator",
          "type": "address"
        },
        {
          "internalType": "bool",
          "name": "approved",
          "type": "bool"
        }
      ],
      "name": "setApprovalForAll",
      "outputs": [],
      "stateMutability": "nonpayable",
      "type": "function"
    },
    {
      "inputs": [
        {
          "internalType": "bytes4",
          "name": "interfaceId",
          "type": "bytes4"
        }
      ],
      "name": "supportsInterface",
      "outputs": [
        {
          "internalType": "bool",
          "name": "",
          "type": "bool"
        }
      ],
      "stateMutability": "view",
      "type": "function"
    },
    {
      "inputs": [],
      "name": "symbol",
      "outputs": [
        {
          "internalType": "string",
          "name": "",
          "type": "string"
        }
      ],
      "stateMutability": "view",
      "type": "function"
    },
    {
      "inputs": [
        {
          "internalType": "address",
          "name": "owner",
          "type": "address"
        }
      ],
      "name": "tokenOf",
      "outputs": [
        {
          "internalType": "uint256",
          "name": "",
          "type": "uint256"
        }
      ],
      "stateMutability": "view",
      "type": "function"
    },
    {
      "inputs": [
        {
          "internalType": "uint256",
          "name": "tokenId",
          "type": "uint256"
        }
      ],
      "name": "tokenURI",
      "outputs": [
        {
          "internalType": "string",
          "name": "",
          "type": "string"
        }
      ],
      "stateMutability": "view",
      "type": "function"
    },
    {
      "inputs": [
        {
          "internalType": "address",
          "name": "",
          "type": "address"
        },
        {
          "internalType": "address",
          "name": "",
          "type": "address"
        },
        {
          "internalType": "uint256",
          "name": "",
          "type": "uint256"
        }
      ],
      "name": "transferFrom",
      "outputs": [],
      "stateMutability": "pure",
      "type": "function"
    }
  ],
  "transactionHash": "0xa26a7350f75e1de30550edec31063dfffb0baeeeaf8e538965de9bb33d27c3a0",
  "args": [],
  "numDeployments": 1,
  "solcInputHash": "5781b71c224b238cfdd853f82e3be1bd",
  "bytecode": "0x608060405234801561001057600080fd5b50612ca2806100206000396000f3fe608060405234801561001057600080fd5b506004361061010b5760003560e01c80636352211e116100a2578063a22cb46511610071578063a22cb465146102de578063b88d4fde146102fa578063c87b56dd14610316578063e985e9c514610346578063eb268a0a146103765761010b565b80636352211e1461024257806370a082311461027257806395d89b41146102a25780639f68e0db146102c05761010b565b806323b872dd116100de57806323b872dd146101aa57806342842e0e146101c657806342ec38e2146101e25780635b3e4970146102125761010b565b806301ffc9a71461011057806306fdde0314610140578063081812fc1461015e578063095ea7b31461018e575b600080fd5b61012a600480360381019061012591906117b2565b610392565b60405161013791906117fa565b60405180910390f35b610148610474565b60405161015591906118a5565b60405180910390f35b610178600480360381019061017391906118fd565b610506565b604051610185919061196b565b60405180910390f35b6101a860048036038101906101a391906119b2565b61054c565b005b6101c460048036038101906101bf91906119f2565b610663565b005b6101e060048036038101906101db91906119f2565b610695565b005b6101fc60048036038101906101f79190611a45565b6106c7565b6040516102099190611a81565b60405180910390f35b61022c60048036038101906102279190611a45565b6106ff565b6040516102399190611b68565b60405180910390f35b61025c600480360381019061025791906118fd565b61088a565b604051610269919061196b565b60405180910390f35b61028c60048036038101906102879190611a45565b6108b1565b6040516102999190611a81565b60405180910390f35b6102aa6108e3565b6040516102b791906118a5565b60405180910390f35b6102c8610975565b6040516102d59190611c74565b60405180910390f35b6102f860048036038101906102f39190611cc2565b610a9d565b005b610314600480360381019061030f9190611e37565b610ab3565b005b610330600480360381019061032b91906118fd565b610ae5565b60405161033d91906118a5565b60405180910390f35b610360600480360381019061035b9190611eba565b610ba5565b60405161036d91906117fa565b60405180910390f35b610390600480360381019061038b9190612253565b610c39565b005b60007f80ac58cd000000000000000000000000000000000000000000000000000000007bffffffffffffffffffffffffffffffffffffffffffffffffffffffff1916827bffffffffffffffffffffffffffffffffffffffffffffffffffffffff1916148061045d57507f5b5e139f000000000000000000000000000000000000000000000000000000007bffffffffffffffffffffffffffffffffffffffffffffffffffffffff1916827bffffffffffffffffffffffffffffffffffffffffffffffffffffffff1916145b8061046d575061046c82610f3c565b5b9050919050565b606060658054610483906123b7565b80601f01602080910402602001604051908101604052809291908181526020018280546104af906123b7565b80156104fc5780601f106104d1576101008083540402835291602001916104fc565b820191906000526020600020905b8154815290600101906020018083116104df57829003601f168201915b5050505050905090565b600061051182610fa6565b6069600083815260200190815260200160002060009054906101000a900473ffffffffffffffffffffffffffffffffffffffff169050919050565b600061055782610ff1565b90508073ffffffffffffffffffffffffffffffffffffffff168373ffffffffffffffffffffffffffffffffffffffff16036105c7576040517f08c379a00000000000000000000000000000000000000000000000000000000081526004016105be9061245a565b60405180910390fd5b8073ffffffffffffffffffffffffffffffffffffffff166105e6611077565b73ffffffffffffffffffffffffffffffffffffffff16148061061557506106148161060f611077565b610ba5565b5b610654576040517f08c379a000000000000000000000000000000000000000000000000000000000815260040161064b906124ec565b60405180910390fd5b61065e838361107f565b505050565b6040517fb47d3f4200000000000000000000000000000000000000000000000000000000815260040160405180910390fd5b6040517fb47d3f4200000000000000000000000000000000000000000000000000000000815260040160405180910390fd5b600060016106d4836108b1565b146106e05760006106f8565b8173ffffffffffffffffffffffffffffffffffffffff165b9050919050565b6107076116f6565b60005b6097805490508110156108845760006097828154811061072d5761072c61250c565b5b90600052602060002090600202016040518060600160405290816000820160009054906101000a900473ffffffffffffffffffffffffffffffffffffffff1673ffffffffffffffffffffffffffffffffffffffff1673ffffffffffffffffffffffffffffffffffffffff1681526020016001820160009054906101000a900473ffffffffffffffffffffffffffffffffffffffff1673ffffffffffffffffffffffffffffffffffffffff1673ffffffffffffffffffffffffffffffffffffffff1681526020016001820160149054906101000a9004600b0b600b0b600b0b8152505090506000610846858360200151846000015173ffffffffffffffffffffffffffffffffffffffff166111389092919063ffffffff16565b905080600b0b8260400151600b0b131580156108665750600081600b0b14155b1561086f578193505b5050808061087c9061256a565b91505061070a565b50919050565b600080829050600161089b826108b1565b146108a75760006108a9565b805b915050919050565b6000806108bd836106ff565b905060008160400151600b0b136108d55760006108d8565b60015b60ff16915050919050565b6060606680546108f2906123b7565b80601f016020809104026020016040519081016040528092919081815260200182805461091e906123b7565b801561096b5780601f106109405761010080835404028352916020019161096b565b820191906000526020600020905b81548152906001019060200180831161094e57829003601f168201915b5050505050905090565b60606097805480602002602001604051908101604052809291908181526020016000905b82821015610a9457838290600052602060002090600202016040518060600160405290816000820160009054906101000a900473ffffffffffffffffffffffffffffffffffffffff1673ffffffffffffffffffffffffffffffffffffffff1673ffffffffffffffffffffffffffffffffffffffff1681526020016001820160009054906101000a900473ffffffffffffffffffffffffffffffffffffffff1673ffffffffffffffffffffffffffffffffffffffff1673ffffffffffffffffffffffffffffffffffffffff1681526020016001820160149054906101000a9004600b0b600b0b600b0b8152505081526020019060010190610999565b50505050905090565b610aaf610aa8611077565b83836111d8565b5050565b6040517fb47d3f4200000000000000000000000000000000000000000000000000000000815260040160405180910390fd5b606060008290506000610af7826108b1565b14610b8c5760988054610b09906123b7565b80601f0160208091040260200160405190810160405280929190818152602001828054610b35906123b7565b8015610b825780601f10610b5757610100808354040283529160200191610b82565b820191906000526020600020905b815481529060010190602001808311610b6557829003601f168201915b5050505050610b9d565b604051806020016040528060008152505b915050919050565b6000606a60008473ffffffffffffffffffffffffffffffffffffffff1673ffffffffffffffffffffffffffffffffffffffff16815260200190815260200160002060008373ffffffffffffffffffffffffffffffffffffffff1673ffffffffffffffffffffffffffffffffffffffff16815260200190815260200160002060009054906101000a900460ff16905092915050565b60008060019054906101000a900460ff16159050808015610c6a5750600160008054906101000a900460ff1660ff16105b80610c975750610c7930611344565b158015610c965750600160008054906101000a900460ff1660ff16145b5b610cd6576040517f08c379a0000000000000000000000000000000000000000000000000000000008152600401610ccd90612624565b60405180910390fd5b60016000806101000a81548160ff021916908360ff1602179055508015610d13576001600060016101000a81548160ff0219169083151502179055505b610d1d8484611367565b60005b8751811015610ed957609760405180606001604052808a8481518110610d4957610d4861250c565b5b602002602001015173ffffffffffffffffffffffffffffffffffffffff168152602001898481518110610d7f57610d7e61250c565b5b602002602001015173ffffffffffffffffffffffffffffffffffffffff168152602001888481518110610db557610db461250c565b5b6020026020010151600b0b815250908060018154018082558091505060019003906000526020600020906002020160009091909190915060008201518160000160006101000a81548173ffffffffffffffffffffffffffffffffffffffff021916908373ffffffffffffffffffffffffffffffffffffffff16021790555060208201518160010160006101000a81548173ffffffffffffffffffffffffffffffffffffffff021916908373ffffffffffffffffffffffffffffffffffffffff16021790555060408201518160010160146101000a8154816bffffffffffffffffffffffff0219169083600b0b6bffffffffffffffffffffffff16021790555050508260989081610ec591906127e6565b508080610ed19061256a565b915050610d20565b508015610f335760008060016101000a81548160ff0219169083151502179055507f7f26b83ff96e1f2b6a682f133852f6798a09c465da95921460cefb38474024986001604051610f2a9190612900565b60405180910390a15b50505050505050565b60007f01ffc9a7000000000000000000000000000000000000000000000000000000007bffffffffffffffffffffffffffffffffffffffffffffffffffffffff1916827bffffffffffffffffffffffffffffffffffffffffffffffffffffffff1916149050919050565b610faf816113c4565b610fee576040517f08c379a0000000000000000000000000000000000000000000000000000000008152600401610fe590612967565b60405180910390fd5b50565b600080610ffd83611405565b9050600073ffffffffffffffffffffffffffffffffffffffff168173ffffffffffffffffffffffffffffffffffffffff160361106e576040517f08c379a000000000000000000000000000000000000000000000000000000000815260040161106590612967565b60405180910390fd5b80915050919050565b600033905090565b816069600083815260200190815260200160002060006101000a81548173ffffffffffffffffffffffffffffffffffffffff021916908373ffffffffffffffffffffffffffffffffffffffff160217905550808273ffffffffffffffffffffffffffffffffffffffff166110f283610ff1565b73ffffffffffffffffffffffffffffffffffffffff167f8c5be1e5ebec7d5bd14f71427d1e84f3dd0314c0f7b2291e5b200ac8c7c3b92560405160405180910390a45050565b60008061114485611442565b9150508073ffffffffffffffffffffffffffffffffffffffff1663e6a1e8888686866040518463ffffffff1660e01b815260040161118493929190612996565b608060405180830381865afa1580156111a1573d6000803e3d6000fd5b505050506040513d601f19601f820116820180604052508101906111c591906129f7565b9091925090505080925050509392505050565b8173ffffffffffffffffffffffffffffffffffffffff168373ffffffffffffffffffffffffffffffffffffffff1603611246576040517f08c379a000000000000000000000000000000000000000000000000000000000815260040161123d90612aaa565b60405180910390fd5b80606a60008573ffffffffffffffffffffffffffffffffffffffff1673ffffffffffffffffffffffffffffffffffffffff16815260200190815260200160002060008473ffffffffffffffffffffffffffffffffffffffff1673ffffffffffffffffffffffffffffffffffffffff16815260200190815260200160002060006101000a81548160ff0219169083151502179055508173ffffffffffffffffffffffffffffffffffffffff168373ffffffffffffffffffffffffffffffffffffffff167f17307eab39ab6107e8899845ad3d59bd9653f200f220920489ca2b5937696c318360405161133791906117fa565b60405180910390a3505050565b6000808273ffffffffffffffffffffffffffffffffffffffff163b119050919050565b600060019054906101000a900460ff166113b6576040517f08c379a00000000000000000000000000000000000000000000000000000000081526004016113ad90612b3c565b60405180910390fd5b6113c08282611683565b5050565b60008073ffffffffffffffffffffffffffffffffffffffff166113e683611405565b73ffffffffffffffffffffffffffffffffffffffff1614159050919050565b60006067600083815260200190815260200160002060009054906101000a900473ffffffffffffffffffffffffffffffffffffffff169050919050565b6000807f65599bf746e17a00ea62e3610586992d88101b78eec3cf380706621fb97ea8375491507fb969d79d88acd02d04ed7ee7d43b949e7daf093d363abcfbbc43dfdfd1ce969a549050600073ffffffffffffffffffffffffffffffffffffffff168173ffffffffffffffffffffffffffffffffffffffff160361160457600073ffffffffffffffffffffffffffffffffffffffff168273ffffffffffffffffffffffffffffffffffffffff1603611567578273ffffffffffffffffffffffffffffffffffffffff166320bc44256040518163ffffffff1660e01b8152600401602060405180830381865afa158015611540573d6000803e3d6000fd5b505050506040513d601f19601f820116820180604052508101906115649190612b71565b91505b8173ffffffffffffffffffffffffffffffffffffffff1663b6d200de7fa9214cc96615e0085d3bb077758db69497dc2dce3b2b1e97bc93c3d18d83efd36040518263ffffffff1660e01b81526004016115c09190612bb7565b602060405180830381865afa1580156115dd573d6000803e3d6000fd5b505050506040513d601f19601f820116820180604052508101906116019190612c10565b90505b600073ffffffffffffffffffffffffffffffffffffffff168273ffffffffffffffffffffffffffffffffffffffff160361164157611640612c3d565b5b600073ffffffffffffffffffffffffffffffffffffffff168173ffffffffffffffffffffffffffffffffffffffff160361167e5761167d612c3d565b5b915091565b600060019054906101000a900460ff166116d2576040517f08c379a00000000000000000000000000000000000000000000000000000000081526004016116c990612b3c565b60405180910390fd5b81606590816116e191906127e6565b5080606690816116f191906127e6565b505050565b6040518060600160405280600073ffffffffffffffffffffffffffffffffffffffff168152602001600073ffffffffffffffffffffffffffffffffffffffff1681526020016000600b0b81525090565b6000604051905090565b600080fd5b600080fd5b60007fffffffff0000000000000000000000000000000000000000000000000000000082169050919050565b61178f8161175a565b811461179a57600080fd5b50565b6000813590506117ac81611786565b92915050565b6000602082840312156117c8576117c7611750565b5b60006117d68482850161179d565b91505092915050565b60008115159050919050565b6117f4816117df565b82525050565b600060208201905061180f60008301846117eb565b92915050565b600081519050919050565b600082825260208201905092915050565b60005b8381101561184f578082015181840152602081019050611834565b60008484015250505050565b6000601f19601f8301169050919050565b600061187782611815565b6118818185611820565b9350611891818560208601611831565b61189a8161185b565b840191505092915050565b600060208201905081810360008301526118bf818461186c565b905092915050565b6000819050919050565b6118da816118c7565b81146118e557600080fd5b50565b6000813590506118f7816118d1565b92915050565b60006020828403121561191357611912611750565b5b6000611921848285016118e8565b91505092915050565b600073ffffffffffffffffffffffffffffffffffffffff82169050919050565b60006119558261192a565b9050919050565b6119658161194a565b82525050565b6000602082019050611980600083018461195c565b92915050565b61198f8161194a565b811461199a57600080fd5b50565b6000813590506119ac81611986565b92915050565b600080604083850312156119c9576119c8611750565b5b60006119d78582860161199d565b92505060206119e8858286016118e8565b9150509250929050565b600080600060608486031215611a0b57611a0a611750565b5b6000611a198682870161199d565b9350506020611a2a8682870161199d565b9250506040611a3b868287016118e8565b9150509250925092565b600060208284031215611a5b57611a5a611750565b5b6000611a698482850161199d565b91505092915050565b611a7b816118c7565b82525050565b6000602082019050611a966000830184611a72565b92915050565b6000819050919050565b6000611ac1611abc611ab78461192a565b611a9c565b61192a565b9050919050565b6000611ad382611aa6565b9050919050565b6000611ae582611ac8565b9050919050565b611af581611ada565b82525050565b611b048161194a565b82525050565b600081600b0b9050919050565b611b2081611b0a565b82525050565b606082016000820151611b3c6000850182611aec565b506020820151611b4f6020850182611afb565b506040820151611b626040850182611b17565b50505050565b6000606082019050611b7d6000830184611b26565b92915050565b600081519050919050565b600082825260208201905092915050565b6000819050602082019050919050565b606082016000820151611bc56000850182611aec565b506020820151611bd86020850182611afb565b506040820151611beb6040850182611b17565b50505050565b6000611bfd8383611baf565b60608301905092915050565b6000602082019050919050565b6000611c2182611b83565b611c2b8185611b8e565b9350611c3683611b9f565b8060005b83811015611c67578151611c4e8882611bf1565b9750611c5983611c09565b925050600181019050611c3a565b5085935050505092915050565b60006020820190508181036000830152611c8e8184611c16565b905092915050565b611c9f816117df565b8114611caa57600080fd5b50565b600081359050611cbc81611c96565b92915050565b60008060408385031215611cd957611cd8611750565b5b6000611ce78582860161199d565b9250506020611cf885828601611cad565b9150509250929050565b600080fd5b600080fd5b7f4e487b7100000000000000000000000000000000000000000000000000000000600052604160045260246000fd5b611d448261185b565b810181811067ffffffffffffffff82111715611d6357611d62611d0c565b5b80604052505050565b6000611d76611746565b9050611d828282611d3b565b919050565b600067ffffffffffffffff821115611da257611da1611d0c565b5b611dab8261185b565b9050602081019050919050565b82818337600083830152505050565b6000611dda611dd584611d87565b611d6c565b905082815260208101848484011115611df657611df5611d07565b5b611e01848285611db8565b509392505050565b600082601f830112611e1e57611e1d611d02565b5b8135611e2e848260208601611dc7565b91505092915050565b60008060008060808587031215611e5157611e50611750565b5b6000611e5f8782880161199d565b9450506020611e708782880161199d565b9350506040611e81878288016118e8565b925050606085013567ffffffffffffffff811115611ea257611ea1611755565b5b611eae87828801611e09565b91505092959194509250565b60008060408385031215611ed157611ed0611750565b5b6000611edf8582860161199d565b9250506020611ef08582860161199d565b9150509250929050565b600067ffffffffffffffff821115611f1557611f14611d0c565b5b602082029050602081019050919050565b600080fd5b6000611f368261194a565b9050919050565b611f4681611f2b565b8114611f5157600080fd5b50565b600081359050611f6381611f3d565b92915050565b6000611f7c611f7784611efa565b611d6c565b90508083825260208201905060208402830185811115611f9f57611f9e611f26565b5b835b81811015611fc85780611fb48882611f54565b845260208401935050602081019050611fa1565b5050509392505050565b600082601f830112611fe757611fe6611d02565b5b8135611ff7848260208601611f69565b91505092915050565b600067ffffffffffffffff82111561201b5761201a611d0c565b5b602082029050602081019050919050565b600061203f61203a84612000565b611d6c565b9050808382526020820190506020840283018581111561206257612061611f26565b5b835b8181101561208b5780612077888261199d565b845260208401935050602081019050612064565b5050509392505050565b600082601f8301126120aa576120a9611d02565b5b81356120ba84826020860161202c565b91505092915050565b600067ffffffffffffffff8211156120de576120dd611d0c565b5b602082029050602081019050919050565b6120f881611b0a565b811461210357600080fd5b50565b600081359050612115816120ef565b92915050565b600061212e612129846120c3565b611d6c565b9050808382526020820190506020840283018581111561215157612150611f26565b5b835b8181101561217a57806121668882612106565b845260208401935050602081019050612153565b5050509392505050565b600082601f83011261219957612198611d02565b5b81356121a984826020860161211b565b91505092915050565b600067ffffffffffffffff8211156121cd576121cc611d0c565b5b6121d68261185b565b9050602081019050919050565b60006121f66121f1846121b2565b611d6c565b90508281526020810184848401111561221257612211611d07565b5b61221d848285611db8565b509392505050565b600082601f83011261223a57612239611d02565b5b813561224a8482602086016121e3565b91505092915050565b60008060008060008060c087890312156122705761226f611750565b5b600087013567ffffffffffffffff81111561228e5761228d611755565b5b61229a89828a01611fd2565b965050602087013567ffffffffffffffff8111156122bb576122ba611755565b5b6122c789828a01612095565b955050604087013567ffffffffffffffff8111156122e8576122e7611755565b5b6122f489828a01612184565b945050606087013567ffffffffffffffff81111561231557612314611755565b5b61232189828a01612225565b935050608087013567ffffffffffffffff81111561234257612341611755565b5b61234e89828a01612225565b92505060a087013567ffffffffffffffff81111561236f5761236e611755565b5b61237b89828a01612225565b9150509295509295509295565b7f4e487b7100000000000000000000000000000000000000000000000000000000600052602260045260246000fd5b600060028204905060018216806123cf57607f821691505b6020821081036123e2576123e1612388565b5b50919050565b7f4552433732313a20617070726f76616c20746f2063757272656e74206f776e6560008201527f7200000000000000000000000000000000000000000000000000000000000000602082015250565b6000612444602183611820565b915061244f826123e8565b604082019050919050565b6000602082019050818103600083015261247381612437565b9050919050565b7f4552433732313a20617070726f76652063616c6c6572206973206e6f7420746f60008201527f6b656e206f776e6572206f7220617070726f76656420666f7220616c6c000000602082015250565b60006124d6603d83611820565b91506124e18261247a565b604082019050919050565b60006020820190508181036000830152612505816124c9565b9050919050565b7f4e487b7100000000000000000000000000000000000000000000000000000000600052603260045260246000fd5b7f4e487b7100000000000000000000000000000000000000000000000000000000600052601160045260246000fd5b6000612575826118c7565b91507fffffffffffffffffffffffffffffffffffffffffffffffffffffffffffffffff82036125a7576125a661253b565b5b600182019050919050565b7f496e697469616c697a61626c653a20636f6e747261637420697320616c72656160008201527f647920696e697469616c697a6564000000000000000000000000000000000000602082015250565b600061260e602e83611820565b9150612619826125b2565b604082019050919050565b6000602082019050818103600083015261263d81612601565b9050919050565b60008190508160005260206000209050919050565b60006020601f8301049050919050565b600082821b905092915050565b6000600883026126a67fffffffffffffffffffffffffffffffffffffffffffffffffffffffffffffffff82612669565b6126b08683612669565b95508019841693508086168417925050509392505050565b60006126e36126de6126d9846118c7565b611a9c565b6118c7565b9050919050565b6000819050919050565b6126fd836126c8565b612711612709826126ea565b848454612676565b825550505050565b600090565b612726612719565b6127318184846126f4565b505050565b5b818110156127555761274a60008261271e565b600181019050612737565b5050565b601f82111561279a5761276b81612644565b61277484612659565b81016020851015612783578190505b61279761278f85612659565b830182612736565b50505b505050565b600082821c905092915050565b60006127bd6000198460080261279f565b1980831691505092915050565b60006127d683836127ac565b9150826002028217905092915050565b6127ef82611815565b67ffffffffffffffff81111561280857612807611d0c565b5b61281282546123b7565b61281d828285612759565b600060209050601f831160018114612850576000841561283e578287015190505b61284885826127ca565b8655506128b0565b601f19841661285e86612644565b60005b8281101561288657848901518255600182019150602085019450602081019050612861565b868310156128a3578489015161289f601f8916826127ac565b8355505b6001600288020188555050505b505050505050565b6000819050919050565b600060ff82169050919050565b60006128ea6128e56128e0846128b8565b611a9c565b6128c2565b9050919050565b6128fa816128cf565b82525050565b600060208201905061291560008301846128f1565b92915050565b7f4552433732313a20696e76616c696420746f6b656e2049440000000000000000600082015250565b6000612951601883611820565b915061295c8261291b565b602082019050919050565b6000602082019050818103600083015261298081612944565b9050919050565b61299081611ada565b82525050565b60006060820190506129ab6000830186612987565b6129b8602083018561195c565b6129c5604083018461195c565b949350505050565b6000815190506129dc816118d1565b92915050565b6000815190506129f1816120ef565b92915050565b60008060008060808587031215612a1157612a10611750565b5b6000612a1f878288016129cd565b9450506020612a30878288016129e2565b9350506040612a41878288016129cd565b9250506060612a52878288016129cd565b91505092959194509250565b7f4552433732313a20617070726f766520746f2063616c6c657200000000000000600082015250565b6000612a94601983611820565b9150612a9f82612a5e565b602082019050919050565b60006020820190508181036000830152612ac381612a87565b9050919050565b7f496e697469616c697a61626c653a20636f6e7472616374206973206e6f74206960008201527f6e697469616c697a696e67000000000000000000000000000000000000000000602082015250565b6000612b26602b83611820565b9150612b3182612aca565b604082019050919050565b60006020820190508181036000830152612b5581612b19565b9050919050565b600081519050612b6b81611986565b92915050565b600060208284031215612b8757612b86611750565b5b6000612b9584828501612b5c565b91505092915050565b6000819050919050565b612bb181612b9e565b82525050565b6000602082019050612bcc6000830184612ba8565b92915050565b6000612bdd8261194a565b9050919050565b612bed81612bd2565b8114612bf857600080fd5b50565b600081519050612c0a81612be4565b92915050565b600060208284031215612c2657612c25611750565b5b6000612c3484828501612bfb565b91505092915050565b7f4e487b7100000000000000000000000000000000000000000000000000000000600052600160045260246000fdfea2646970667358221220b45888870e4d5722c2bdf008d01c08e9efcfb7c7d76a4bd969ac76db1ccc3e5364736f6c63430008130033",
  "devdoc": {
    "author": "Superfluid Finance",
    "details": "Mirrors the Superfluid Checkout-Builder interface",
    "events": {
      "Approval(address,address,uint256)": {
        "details": "Emitted when `owner` enables `approved` to manage the `tokenId` token."
      },
      "ApprovalForAll(address,address,bool)": {
        "details": "Emitted when `owner` enables or disables (`approved`) `operator` to manage all of its assets."
      },
      "Initialized(uint8)": {
        "details": "Triggered when the contract has been initialized or reinitialized."
      },
      "Transfer(address,address,uint256)": {
        "details": "Emitted when `tokenId` token is transferred from `from` to `to`."
      }
    },
    "kind": "dev",
    "methods": {
      "approve(address,uint256)": {
        "details": "See {IERC721-approve}."
      },
      "balanceOf(address)": {
        "details": "See {IERC721-balanceOf}.",
        "returns": {
          "_0": "1 if the owner has a positive flow rate, 0 otherwise"
        }
      },
      "getApproved(uint256)": {
        "details": "See {IERC721-getApproved}."
      },
      "getPaymentOptionFor(address)": {
        "details": "@param result is initialized as an empty PaymentOption, so that if no match is found, an empty PaymentOption is returned",
        "params": {
          "owner": "-  the address of the owner",
          "result": ", the loop is not broken, so that the last match is returned."
        },
        "returns": {
          "result": "PaymentOption - the PaymentOption that matches the owner or an empty PaymentOption"
        }
      },
      "getPaymentOptions()": {
        "returns": {
          "_0": "PaymentOption[] - all configured PaymentOptions"
        }
      },
      "initialize(address[],address[],int96[],string,string,string)": {
        "details": "Array parameters should be the same size."
      },
      "isApprovedForAll(address,address)": {
        "details": "See {IERC721-isApprovedForAll}."
      },
      "name()": {
        "details": "See {IERC721Metadata-name}."
      },
      "ownerOf(uint256)": {
        "params": {
          "tokenId": "- is the address of the owner"
        },
        "returns": {
          "_0": "@param owner - if they have a positive flow rate, otherwise zero address"
        }
      },
      "safeTransferFrom(address,address,uint256)": {
        "details": "See {IERC721-safeTransferFrom}"
      },
      "safeTransferFrom(address,address,uint256,bytes)": {
        "details": "See {IERC721-safeTransferFrom}"
      },
      "setApprovalForAll(address,bool)": {
        "details": "See {IERC721-setApprovalForAll}."
      },
      "supportsInterface(bytes4)": {
        "details": "See {IERC165-supportsInterface}."
      },
      "symbol()": {
        "details": "See {IERC721Metadata-symbol}."
      },
      "tokenOf(address)": {
        "details": "one address can own only one token",
        "params": {
          "owner": "- is the address of the owner"
        },
        "returns": {
          "_0": "tokenId - the address converted to uint256, 0 if the owner has no positive flow rate"
        }
      },
      "tokenURI(uint256)": {
        "details": "See {IERC721-tokenURI}.",
        "params": {
          "tokenId": "- is the address of the owner"
        },
        "returns": {
          "_0": "tokenURI - the global URI of the NFT set at deployment"
        }
      },
      "transferFrom(address,address,uint256)": {
        "details": "See {IERC721-transferFrom}."
      }
    },
    "version": 1
  },
  "userdoc": {
    "kind": "user",
    "methods": {
      "balanceOf(address)": {
        "notice": "Overridden balanceOf, returning a value depending on the flow rate of the owner"
      },
      "getPaymentOptionFor(address)": {
        "notice": "match the owner to a PaymentOption"
      },
      "getPaymentOptions()": {
        "notice": "get all configured PaymentOptions"
      },
      "initialize(address[],address[],int96[],string,string,string)": {
        "notice": "Initializes the contract setting the given PaymentOptions"
      },
      "ownerOf(uint256)": {
        "notice": "Overridden ownerOf, determines the owner, depending flow rate"
      },
      "safeTransferFrom(address,address,uint256)": {
        "notice": "This NFT is not transferable"
      },
      "safeTransferFrom(address,address,uint256,bytes)": {
        "notice": "This NFT is not transferable"
      },
      "tokenOf(address)": {
        "notice": "get the tokenId for an owner"
      },
      "tokenURI(uint256)": {
        "notice": "Overridden tokenURI, returning the URI set at deployment"
      },
      "transferFrom(address,address,uint256)": {
        "notice": "This NFT is not transferable"
      }
    },
    "notice": "Non-mintable NFT contract that is owned by a user as long as they have a positive flow rate",
    "version": 1
  },
  "storageLayout": {
    "storage": [
      {
        "astId": 6,
        "contract": "contracts/ExistentialNFT.sol:ExistentialNFT",
        "label": "_initialized",
        "offset": 0,
        "slot": "0",
        "type": "t_uint8"
      },
      {
        "astId": 9,
        "contract": "contracts/ExistentialNFT.sol:ExistentialNFT",
        "label": "_initializing",
        "offset": 1,
        "slot": "0",
        "type": "t_bool"
      },
      {
        "astId": 1652,
        "contract": "contracts/ExistentialNFT.sol:ExistentialNFT",
        "label": "__gap",
        "offset": 0,
        "slot": "1",
        "type": "t_array(t_uint256)50_storage"
      },
      {
        "astId": 1925,
        "contract": "contracts/ExistentialNFT.sol:ExistentialNFT",
        "label": "__gap",
        "offset": 0,
        "slot": "51",
        "type": "t_array(t_uint256)50_storage"
      },
      {
        "astId": 197,
        "contract": "contracts/ExistentialNFT.sol:ExistentialNFT",
        "label": "_name",
        "offset": 0,
        "slot": "101",
        "type": "t_string_storage"
      },
      {
        "astId": 199,
        "contract": "contracts/ExistentialNFT.sol:ExistentialNFT",
        "label": "_symbol",
        "offset": 0,
        "slot": "102",
        "type": "t_string_storage"
      },
      {
        "astId": 203,
        "contract": "contracts/ExistentialNFT.sol:ExistentialNFT",
        "label": "_owners",
        "offset": 0,
        "slot": "103",
        "type": "t_mapping(t_uint256,t_address)"
      },
      {
        "astId": 207,
        "contract": "contracts/ExistentialNFT.sol:ExistentialNFT",
        "label": "_balances",
        "offset": 0,
        "slot": "104",
        "type": "t_mapping(t_address,t_uint256)"
      },
      {
        "astId": 211,
        "contract": "contracts/ExistentialNFT.sol:ExistentialNFT",
        "label": "_tokenApprovals",
        "offset": 0,
        "slot": "105",
        "type": "t_mapping(t_uint256,t_address)"
      },
      {
        "astId": 217,
        "contract": "contracts/ExistentialNFT.sol:ExistentialNFT",
        "label": "_operatorApprovals",
        "offset": 0,
        "slot": "106",
        "type": "t_mapping(t_address,t_mapping(t_address,t_bool))"
      },
      {
        "astId": 1119,
        "contract": "contracts/ExistentialNFT.sol:ExistentialNFT",
        "label": "__gap",
        "offset": 0,
        "slot": "107",
        "type": "t_array(t_uint256)44_storage"
      },
      {
        "astId": 10485,
        "contract": "contracts/ExistentialNFT.sol:ExistentialNFT",
        "label": "paymentOptions",
        "offset": 0,
        "slot": "151",
        "type": "t_array(t_struct(PaymentOption)10474_storage)dyn_storage"
      },
      {
        "astId": 10487,
        "contract": "contracts/ExistentialNFT.sol:ExistentialNFT",
        "label": "_tokenURI",
        "offset": 0,
        "slot": "152",
        "type": "t_string_storage"
      }
    ],
    "types": {
      "t_address": {
        "encoding": "inplace",
        "label": "address",
        "numberOfBytes": "20"
      },
      "t_array(t_struct(PaymentOption)10474_storage)dyn_storage": {
        "base": "t_struct(PaymentOption)10474_storage",
        "encoding": "dynamic_array",
        "label": "struct PaymentOption[]",
        "numberOfBytes": "32"
      },
      "t_array(t_uint256)44_storage": {
        "base": "t_uint256",
        "encoding": "inplace",
        "label": "uint256[44]",
        "numberOfBytes": "1408"
      },
      "t_array(t_uint256)50_storage": {
        "base": "t_uint256",
        "encoding": "inplace",
        "label": "uint256[50]",
        "numberOfBytes": "1600"
      },
      "t_bool": {
        "encoding": "inplace",
        "label": "bool",
        "numberOfBytes": "1"
      },
      "t_contract(ISuperToken)8415": {
        "encoding": "inplace",
        "label": "contract ISuperToken",
        "numberOfBytes": "20"
      },
      "t_int96": {
        "encoding": "inplace",
        "label": "int96",
        "numberOfBytes": "12"
      },
      "t_mapping(t_address,t_bool)": {
        "encoding": "mapping",
        "key": "t_address",
        "label": "mapping(address => bool)",
        "numberOfBytes": "32",
        "value": "t_bool"
      },
      "t_mapping(t_address,t_mapping(t_address,t_bool))": {
        "encoding": "mapping",
        "key": "t_address",
        "label": "mapping(address => mapping(address => bool))",
        "numberOfBytes": "32",
        "value": "t_mapping(t_address,t_bool)"
      },
      "t_mapping(t_address,t_uint256)": {
        "encoding": "mapping",
        "key": "t_address",
        "label": "mapping(address => uint256)",
        "numberOfBytes": "32",
        "value": "t_uint256"
      },
      "t_mapping(t_uint256,t_address)": {
        "encoding": "mapping",
        "key": "t_uint256",
        "label": "mapping(uint256 => address)",
        "numberOfBytes": "32",
        "value": "t_address"
      },
      "t_string_storage": {
        "encoding": "bytes",
        "label": "string",
        "numberOfBytes": "32"
      },
      "t_struct(PaymentOption)10474_storage": {
        "encoding": "inplace",
        "label": "struct PaymentOption",
        "members": [
          {
            "astId": 10469,
            "contract": "contracts/ExistentialNFT.sol:ExistentialNFT",
            "label": "incomingFlowToken",
            "offset": 0,
            "slot": "0",
            "type": "t_contract(ISuperToken)8415"
          },
          {
            "astId": 10471,
            "contract": "contracts/ExistentialNFT.sol:ExistentialNFT",
            "label": "recipient",
            "offset": 0,
            "slot": "1",
            "type": "t_address"
          },
          {
            "astId": 10473,
            "contract": "contracts/ExistentialNFT.sol:ExistentialNFT",
            "label": "requiredFlowRate",
            "offset": 20,
            "slot": "1",
            "type": "t_int96"
          }
        ],
        "numberOfBytes": "64"
      },
      "t_uint256": {
        "encoding": "inplace",
        "label": "uint256",
        "numberOfBytes": "32"
      },
      "t_uint8": {
        "encoding": "inplace",
        "label": "uint8",
        "numberOfBytes": "1"
      }
    }
  }
}