{
  "address": "0xF76529ddEE7AA7890323eCa40C212758DD93B888",
  "abi": [
    {
      "inputs": [
        {
          "internalType": "address",
          "name": "_implementation",
          "type": "address"
        }
      ],
      "stateMutability": "nonpayable",
      "type": "constructor"
    },
    {
      "inputs": [],
      "name": "ExistentialNFTCloneFactory_ArgumentLengthMismatch",
      "type": "error"
    },
    {
      "anonymous": false,
      "inputs": [
        {
          "indexed": true,
          "internalType": "address",
          "name": "clone",
          "type": "address"
        }
      ],
      "name": "ExistentialNFTCloneFactory_CloneDeployed",
      "type": "event"
    },
    {
      "anonymous": false,
      "inputs": [
        {
          "indexed": true,
          "internalType": "address",
          "name": "implementation",
          "type": "address"
        }
      ],
      "name": "ExistentialNFTCloneFactory_ImplementationUpdated",
      "type": "event"
    },
    {
      "anonymous": false,
      "inputs": [
        {
          "indexed": true,
          "internalType": "address",
          "name": "previousOwner",
          "type": "address"
        },
        {
          "indexed": true,
          "internalType": "address",
          "name": "newOwner",
          "type": "address"
        }
      ],
      "name": "OwnershipTransferred",
      "type": "event"
    },
    {
      "inputs": [
        {
          "internalType": "address",
          "name": "owner",
          "type": "address"
        },
        {
          "internalType": "contract ISuperToken[]",
          "name": "incomingFlowTokens",
          "type": "address[]"
        },
        {
          "internalType": "address[]",
          "name": "recipients",
          "type": "address[]"
        },
        {
          "internalType": "int96[]",
          "name": "requiredFlowRates",
          "type": "int96[]"
        },
        {
          "internalType": "string",
          "name": "name",
          "type": "string"
        },
        {
          "internalType": "string",
          "name": "symbol",
          "type": "string"
        },
        {
          "internalType": "string",
          "name": "baseURI",
          "type": "string"
        }
      ],
      "name": "deployClone",
      "outputs": [],
      "stateMutability": "nonpayable",
      "type": "function"
    },
    {
      "inputs": [],
      "name": "implementation",
      "outputs": [
        {
          "internalType": "address",
          "name": "",
          "type": "address"
        }
      ],
      "stateMutability": "view",
      "type": "function"
    },
    {
      "inputs": [],
      "name": "owner",
      "outputs": [
        {
          "internalType": "address",
          "name": "",
          "type": "address"
        }
      ],
      "stateMutability": "view",
      "type": "function"
    },
    {
      "inputs": [],
      "name": "renounceOwnership",
      "outputs": [],
      "stateMutability": "nonpayable",
      "type": "function"
    },
    {
      "inputs": [
        {
          "internalType": "address",
          "name": "newOwner",
          "type": "address"
        }
      ],
      "name": "transferOwnership",
      "outputs": [],
      "stateMutability": "nonpayable",
      "type": "function"
    },
    {
      "inputs": [
        {
          "internalType": "address",
          "name": "_implementation",
          "type": "address"
        }
      ],
      "name": "updateImplementation",
      "outputs": [],
      "stateMutability": "nonpayable",
      "type": "function"
    }
  ],
  "transactionHash": "0x1ff7b5dc693d37f1c771a3f134f4d9bd2305d780a914567e7199f577f77bea37",
  "args": [
    "0x9C06f2ee56732cf04979788874aF36209Cf49B7E"
  ],
  "numDeployments": 2,
  "solcInputHash": "a1df3ab736bb63b9f7bf2fce61dee822",
  "bytecode": "0x60806040523480156200001157600080fd5b506040516200133e3803806200133e8339818101604052810190620000379190620001d5565b620000576200004b6200009f60201b60201c565b620000a760201b60201c565b80600160006101000a81548173ffffffffffffffffffffffffffffffffffffffff021916908373ffffffffffffffffffffffffffffffffffffffff1602179055505062000207565b600033905090565b60008060009054906101000a900473ffffffffffffffffffffffffffffffffffffffff169050816000806101000a81548173ffffffffffffffffffffffffffffffffffffffff021916908373ffffffffffffffffffffffffffffffffffffffff1602179055508173ffffffffffffffffffffffffffffffffffffffff168173ffffffffffffffffffffffffffffffffffffffff167f8be0079c531659141344cd1fd0a4f28419497f9722a3daafe3b4186f6b6457e060405160405180910390a35050565b600080fd5b600073ffffffffffffffffffffffffffffffffffffffff82169050919050565b60006200019d8262000170565b9050919050565b620001af8162000190565b8114620001bb57600080fd5b50565b600081519050620001cf81620001a4565b92915050565b600060208284031215620001ee57620001ed6200016b565b5b6000620001fe84828501620001be565b91505092915050565b61112780620002176000396000f3fe608060405234801561001057600080fd5b50600436106100625760003560e01c8063025b22bc146100675780635c60da1b146100835780635e59ca80146100a1578063715018a6146100bd5780638da5cb5b146100c7578063f2fde38b146100e5575b600080fd5b610081600480360381019061007c919061064a565b610101565b005b61008b610190565b6040516100989190610686565b60405180910390f35b6100bb60048036038101906100b69190610aac565b6101b6565b005b6100c5610314565b005b6100cf610328565b6040516100dc9190610686565b60405180910390f35b6100ff60048036038101906100fa919061064a565b610351565b005b6101096103d4565b80600160006101000a81548173ffffffffffffffffffffffffffffffffffffffff021916908373ffffffffffffffffffffffffffffffffffffffff1602179055508073ffffffffffffffffffffffffffffffffffffffff167f091b6fdb2f0f86cfc5b57f1ebafc05227bd3c21c3a1d5ce03920f67fa556f82560405160405180910390a250565b600160009054906101000a900473ffffffffffffffffffffffffffffffffffffffff1681565b600086511180156101c8575084518651145b80156101d5575083518651145b61020b576040517f3b1387ff00000000000000000000000000000000000000000000000000000000815260040160405180910390fd5b600061024e600160009054906101000a900473ffffffffffffffffffffffffffffffffffffffff1673ffffffffffffffffffffffffffffffffffffffff16610452565b90508073ffffffffffffffffffffffffffffffffffffffff167f2de0b6b8dc0046438c5319be9ab58237aec1f9551c7e363d1c95ec7de0f6df6560405160405180910390a28073ffffffffffffffffffffffffffffffffffffffff1663e8f8f9c7898989898989896040518863ffffffff1660e01b81526004016102d89796959493929190610eee565b600060405180830381600087803b1580156102f257600080fd5b505af1158015610306573d6000803e3d6000fd5b505050505050505050505050565b61031c6103d4565b610326600061050c565b565b60008060009054906101000a900473ffffffffffffffffffffffffffffffffffffffff16905090565b6103596103d4565b600073ffffffffffffffffffffffffffffffffffffffff168173ffffffffffffffffffffffffffffffffffffffff16036103c8576040517f08c379a00000000000000000000000000000000000000000000000000000000081526004016103bf90610ff9565b60405180910390fd5b6103d18161050c565b50565b6103dc6105d0565b73ffffffffffffffffffffffffffffffffffffffff166103fa610328565b73ffffffffffffffffffffffffffffffffffffffff1614610450576040517f08c379a000000000000000000000000000000000000000000000000000000000815260040161044790611065565b60405180910390fd5b565b6000763d602d80600a3d3981f3363d3d373d3d3d363d730000008260601b60e81c176000526e5af43d82803e903d91602b57fd5bf38260781b17602052603760096000f09050600073ffffffffffffffffffffffffffffffffffffffff168173ffffffffffffffffffffffffffffffffffffffff1603610507576040517f08c379a00000000000000000000000000000000000000000000000000000000081526004016104fe906110d1565b60405180910390fd5b919050565b60008060009054906101000a900473ffffffffffffffffffffffffffffffffffffffff169050816000806101000a81548173ffffffffffffffffffffffffffffffffffffffff021916908373ffffffffffffffffffffffffffffffffffffffff1602179055508173ffffffffffffffffffffffffffffffffffffffff168173ffffffffffffffffffffffffffffffffffffffff167f8be0079c531659141344cd1fd0a4f28419497f9722a3daafe3b4186f6b6457e060405160405180910390a35050565b600033905090565b6000604051905090565b600080fd5b600080fd5b600073ffffffffffffffffffffffffffffffffffffffff82169050919050565b6000610617826105ec565b9050919050565b6106278161060c565b811461063257600080fd5b50565b6000813590506106448161061e565b92915050565b6000602082840312156106605761065f6105e2565b5b600061066e84828501610635565b91505092915050565b6106808161060c565b82525050565b600060208201905061069b6000830184610677565b92915050565b600080fd5b6000601f19601f8301169050919050565b7f4e487b7100000000000000000000000000000000000000000000000000000000600052604160045260246000fd5b6106ef826106a6565b810181811067ffffffffffffffff8211171561070e5761070d6106b7565b5b80604052505050565b60006107216105d8565b905061072d82826106e6565b919050565b600067ffffffffffffffff82111561074d5761074c6106b7565b5b602082029050602081019050919050565b600080fd5b600061076e8261060c565b9050919050565b61077e81610763565b811461078957600080fd5b50565b60008135905061079b81610775565b92915050565b60006107b46107af84610732565b610717565b905080838252602082019050602084028301858111156107d7576107d661075e565b5b835b8181101561080057806107ec888261078c565b8452602084019350506020810190506107d9565b5050509392505050565b600082601f83011261081f5761081e6106a1565b5b813561082f8482602086016107a1565b91505092915050565b600067ffffffffffffffff821115610853576108526106b7565b5b602082029050602081019050919050565b600061087761087284610838565b610717565b9050808382526020820190506020840283018581111561089a5761089961075e565b5b835b818110156108c357806108af8882610635565b84526020840193505060208101905061089c565b5050509392505050565b600082601f8301126108e2576108e16106a1565b5b81356108f2848260208601610864565b91505092915050565b600067ffffffffffffffff821115610916576109156106b7565b5b602082029050602081019050919050565b600081600b0b9050919050565b61093d81610927565b811461094857600080fd5b50565b60008135905061095a81610934565b92915050565b600061097361096e846108fb565b610717565b905080838252602082019050602084028301858111156109965761099561075e565b5b835b818110156109bf57806109ab888261094b565b845260208401935050602081019050610998565b5050509392505050565b600082601f8301126109de576109dd6106a1565b5b81356109ee848260208601610960565b91505092915050565b600080fd5b600067ffffffffffffffff821115610a1757610a166106b7565b5b610a20826106a6565b9050602081019050919050565b82818337600083830152505050565b6000610a4f610a4a846109fc565b610717565b905082815260208101848484011115610a6b57610a6a6109f7565b5b610a76848285610a2d565b509392505050565b600082601f830112610a9357610a926106a1565b5b8135610aa3848260208601610a3c565b91505092915050565b600080600080600080600060e0888a031215610acb57610aca6105e2565b5b6000610ad98a828b01610635565b975050602088013567ffffffffffffffff811115610afa57610af96105e7565b5b610b068a828b0161080a565b965050604088013567ffffffffffffffff811115610b2757610b266105e7565b5b610b338a828b016108cd565b955050606088013567ffffffffffffffff811115610b5457610b536105e7565b5b610b608a828b016109c9565b945050608088013567ffffffffffffffff811115610b8157610b806105e7565b5b610b8d8a828b01610a7e565b93505060a088013567ffffffffffffffff811115610bae57610bad6105e7565b5b610bba8a828b01610a7e565b92505060c088013567ffffffffffffffff811115610bdb57610bda6105e7565b5b610be78a828b01610a7e565b91505092959891949750929550565b600081519050919050565b600082825260208201905092915050565b6000819050602082019050919050565b6000819050919050565b6000610c47610c42610c3d846105ec565b610c22565b6105ec565b9050919050565b6000610c5982610c2c565b9050919050565b6000610c6b82610c4e565b9050919050565b610c7b81610c60565b82525050565b6000610c8d8383610c72565b60208301905092915050565b6000602082019050919050565b6000610cb182610bf6565b610cbb8185610c01565b9350610cc683610c12565b8060005b83811015610cf7578151610cde8882610c81565b9750610ce983610c99565b925050600181019050610cca565b5085935050505092915050565b600081519050919050565b6000819050602082019050919050565b610d288161060c565b82525050565b6000610d3a8383610d1f565b60208301905092915050565b6000602082019050919050565b6000610d5e82610d04565b610d688185610c01565b9350610d7383610d0f565b8060005b83811015610da4578151610d8b8882610d2e565b9750610d9683610d46565b925050600181019050610d77565b5085935050505092915050565b600081519050919050565b600082825260208201905092915050565b6000819050602082019050919050565b610de681610927565b82525050565b6000610df88383610ddd565b60208301905092915050565b6000602082019050919050565b6000610e1c82610db1565b610e268185610dbc565b9350610e3183610dcd565b8060005b83811015610e62578151610e498882610dec565b9750610e5483610e04565b925050600181019050610e35565b5085935050505092915050565b600081519050919050565b600082825260208201905092915050565b60005b83811015610ea9578082015181840152602081019050610e8e565b60008484015250505050565b6000610ec082610e6f565b610eca8185610e7a565b9350610eda818560208601610e8b565b610ee3816106a6565b840191505092915050565b600060e082019050610f03600083018a610677565b8181036020830152610f158189610ca6565b90508181036040830152610f298188610d53565b90508181036060830152610f3d8187610e11565b90508181036080830152610f518186610eb5565b905081810360a0830152610f658185610eb5565b905081810360c0830152610f798184610eb5565b905098975050505050505050565b7f4f776e61626c653a206e6577206f776e657220697320746865207a65726f206160008201527f6464726573730000000000000000000000000000000000000000000000000000602082015250565b6000610fe3602683610e7a565b9150610fee82610f87565b604082019050919050565b6000602082019050818103600083015261101281610fd6565b9050919050565b7f4f776e61626c653a2063616c6c6572206973206e6f7420746865206f776e6572600082015250565b600061104f602083610e7a565b915061105a82611019565b602082019050919050565b6000602082019050818103600083015261107e81611042565b9050919050565b7f455243313136373a20637265617465206661696c656400000000000000000000600082015250565b60006110bb601683610e7a565b91506110c682611085565b602082019050919050565b600060208201905081810360008301526110ea816110ae565b905091905056fea2646970667358221220bf633c416b5d3eed03467c42ff974323d919c7e47e8b04fb39d3ad8570b6edbd64736f6c63430008130033",
  "devdoc": {
    "kind": "dev",
    "methods": {
      "owner()": {
        "details": "Returns the address of the current owner."
      },
      "renounceOwnership()": {
        "details": "Leaves the contract without owner. It will not be possible to call `onlyOwner` functions. Can only be called by the current owner. NOTE: Renouncing ownership will leave the contract without an owner, thereby disabling any functionality that is only available to the owner."
      },
      "transferOwnership(address)": {
        "details": "Transfers ownership of the contract to a new account (`newOwner`). Can only be called by the current owner."
      }
    },
    "version": 1
  },
  "userdoc": {
    "kind": "user",
    "methods": {},
    "version": 1
  },
  "storageLayout": {
    "storage": [
      {
        "astId": 3049,
        "contract": "contracts/ExistentialNFTCloneFactory.sol:ExistentialNFTCloneFactory",
        "label": "_owner",
        "offset": 0,
        "slot": "0",
        "type": "t_address"
      },
      {
        "astId": 12591,
        "contract": "contracts/ExistentialNFTCloneFactory.sol:ExistentialNFTCloneFactory",
        "label": "implementation",
        "offset": 0,
        "slot": "1",
        "type": "t_address"
      }
    ],
    "types": {
      "t_address": {
        "encoding": "inplace",
        "label": "address",
        "numberOfBytes": "20"
      }
    }
  }
}