{
  "address": "0xd742aDEFcdE01664D3f4253580169B0D0B9f8708",
  "abi": [
    {
      "inputs": [],
      "name": "ExistentialNFT_TransferIsNotAllowed",
      "type": "error"
    },
    {
      "anonymous": false,
      "inputs": [
        {
          "indexed": true,
          "internalType": "address",
          "name": "owner",
          "type": "address"
        },
        {
          "indexed": true,
          "internalType": "address",
          "name": "approved",
          "type": "address"
        },
        {
          "indexed": true,
          "internalType": "uint256",
          "name": "tokenId",
          "type": "uint256"
        }
      ],
      "name": "Approval",
      "type": "event"
    },
    {
      "anonymous": false,
      "inputs": [
        {
          "indexed": true,
          "internalType": "address",
          "name": "owner",
          "type": "address"
        },
        {
          "indexed": true,
          "internalType": "address",
          "name": "operator",
          "type": "address"
        },
        {
          "indexed": false,
          "internalType": "bool",
          "name": "approved",
          "type": "bool"
        }
      ],
      "name": "ApprovalForAll",
      "type": "event"
    },
    {
      "anonymous": false,
      "inputs": [
        {
          "indexed": false,
          "internalType": "uint8",
          "name": "version",
          "type": "uint8"
        }
      ],
      "name": "Initialized",
      "type": "event"
    },
    {
      "anonymous": false,
      "inputs": [
        {
          "indexed": true,
          "internalType": "address",
          "name": "from",
          "type": "address"
        },
        {
          "indexed": true,
          "internalType": "address",
          "name": "to",
          "type": "address"
        },
        {
          "indexed": true,
          "internalType": "uint256",
          "name": "tokenId",
          "type": "uint256"
        }
      ],
      "name": "Transfer",
      "type": "event"
    },
    {
      "inputs": [
        {
          "internalType": "address",
          "name": "to",
          "type": "address"
        },
        {
          "internalType": "uint256",
          "name": "tokenId",
          "type": "uint256"
        }
      ],
      "name": "approve",
      "outputs": [],
      "stateMutability": "nonpayable",
      "type": "function"
    },
    {
      "inputs": [
        {
          "internalType": "address",
          "name": "owner",
          "type": "address"
        }
      ],
      "name": "balanceOf",
      "outputs": [
        {
          "internalType": "uint256",
          "name": "",
          "type": "uint256"
        }
      ],
      "stateMutability": "view",
      "type": "function"
    },
    {
      "inputs": [
        {
          "internalType": "uint256",
          "name": "tokenId",
          "type": "uint256"
        }
      ],
      "name": "getApproved",
      "outputs": [
        {
          "internalType": "address",
          "name": "",
          "type": "address"
        }
      ],
      "stateMutability": "view",
      "type": "function"
    },
    {
      "inputs": [
        {
          "internalType": "address",
          "name": "owner",
          "type": "address"
        }
      ],
      "name": "getPaymentOptionFor",
      "outputs": [
        {
          "components": [
            {
              "internalType": "contract ISuperToken",
              "name": "incomingFlowToken",
              "type": "address"
            },
            {
              "internalType": "address",
              "name": "recipient",
              "type": "address"
            },
            {
              "internalType": "int96",
              "name": "requiredFlowRate",
              "type": "int96"
            }
          ],
          "internalType": "struct PaymentOption",
          "name": "result",
          "type": "tuple"
        }
      ],
      "stateMutability": "view",
      "type": "function"
    },
    {
      "inputs": [],
      "name": "getPaymentOptions",
      "outputs": [
        {
          "components": [
            {
              "internalType": "contract ISuperToken",
              "name": "incomingFlowToken",
              "type": "address"
            },
            {
              "internalType": "address",
              "name": "recipient",
              "type": "address"
            },
            {
              "internalType": "int96",
              "name": "requiredFlowRate",
              "type": "int96"
            }
          ],
          "internalType": "struct PaymentOption[]",
          "name": "",
          "type": "tuple[]"
        }
      ],
      "stateMutability": "view",
      "type": "function"
    },
    {
      "inputs": [
        {
          "internalType": "contract ISuperToken[]",
          "name": "incomingFlowTokens",
          "type": "address[]"
        },
        {
          "internalType": "address[]",
          "name": "recipients",
          "type": "address[]"
        },
        {
          "internalType": "int96[]",
          "name": "requiredFlowRates",
          "type": "int96[]"
        },
        {
          "internalType": "string",
          "name": "name",
          "type": "string"
        },
        {
          "internalType": "string",
          "name": "symbol",
          "type": "string"
        },
        {
          "internalType": "string",
          "name": "_baseURI",
          "type": "string"
        }
      ],
      "name": "initialize",
      "outputs": [],
      "stateMutability": "nonpayable",
      "type": "function"
    },
    {
      "inputs": [
        {
          "internalType": "address",
          "name": "owner",
          "type": "address"
        },
        {
          "internalType": "address",
          "name": "operator",
          "type": "address"
        }
      ],
      "name": "isApprovedForAll",
      "outputs": [
        {
          "internalType": "bool",
          "name": "",
          "type": "bool"
        }
      ],
      "stateMutability": "view",
      "type": "function"
    },
    {
      "inputs": [],
      "name": "name",
      "outputs": [
        {
          "internalType": "string",
          "name": "",
          "type": "string"
        }
      ],
      "stateMutability": "view",
      "type": "function"
    },
    {
      "inputs": [
        {
          "internalType": "uint256",
          "name": "tokenId",
          "type": "uint256"
        }
      ],
      "name": "ownerOf",
      "outputs": [
        {
          "internalType": "address",
          "name": "",
          "type": "address"
        }
      ],
      "stateMutability": "view",
      "type": "function"
    },
    {
      "inputs": [
        {
          "internalType": "address",
          "name": "",
          "type": "address"
        },
        {
          "internalType": "address",
          "name": "",
          "type": "address"
        },
        {
          "internalType": "uint256",
          "name": "",
          "type": "uint256"
        }
      ],
      "name": "safeTransferFrom",
      "outputs": [],
      "stateMutability": "pure",
      "type": "function"
    },
    {
      "inputs": [
        {
          "internalType": "address",
          "name": "",
          "type": "address"
        },
        {
          "internalType": "address",
          "name": "",
          "type": "address"
        },
        {
          "internalType": "uint256",
          "name": "",
          "type": "uint256"
        },
        {
          "internalType": "bytes",
          "name": "",
          "type": "bytes"
        }
      ],
      "name": "safeTransferFrom",
      "outputs": [],
      "stateMutability": "pure",
      "type": "function"
    },
    {
      "inputs": [
        {
          "internalType": "address",
          "name": "operator",
          "type": "address"
        },
        {
          "internalType": "bool",
          "name": "approved",
          "type": "bool"
        }
      ],
      "name": "setApprovalForAll",
      "outputs": [],
      "stateMutability": "nonpayable",
      "type": "function"
    },
    {
      "inputs": [
        {
          "internalType": "bytes4",
          "name": "interfaceId",
          "type": "bytes4"
        }
      ],
      "name": "supportsInterface",
      "outputs": [
        {
          "internalType": "bool",
          "name": "",
          "type": "bool"
        }
      ],
      "stateMutability": "view",
      "type": "function"
    },
    {
      "inputs": [],
      "name": "symbol",
      "outputs": [
        {
          "internalType": "string",
          "name": "",
          "type": "string"
        }
      ],
      "stateMutability": "view",
      "type": "function"
    },
    {
      "inputs": [
        {
          "internalType": "address",
          "name": "owner",
          "type": "address"
        }
      ],
      "name": "tokenOf",
      "outputs": [
        {
          "internalType": "uint256",
          "name": "",
          "type": "uint256"
        }
      ],
      "stateMutability": "view",
      "type": "function"
    },
    {
      "inputs": [
        {
          "internalType": "uint256",
          "name": "tokenId",
          "type": "uint256"
        }
      ],
      "name": "tokenURI",
      "outputs": [
        {
          "internalType": "string",
          "name": "",
          "type": "string"
        }
      ],
      "stateMutability": "view",
      "type": "function"
    },
    {
      "inputs": [
        {
          "internalType": "address",
          "name": "",
          "type": "address"
        },
        {
          "internalType": "address",
          "name": "",
          "type": "address"
        },
        {
          "internalType": "uint256",
          "name": "",
          "type": "uint256"
        }
      ],
      "name": "transferFrom",
      "outputs": [],
      "stateMutability": "pure",
      "type": "function"
    }
  ],
  "transactionHash": "0xd29b5a3b2653607ebaf2388a5fa02fae4cc32016eac02e468cbe6420f7593364",
  "args": [],
  "numDeployments": 2,
  "solcInputHash": "91f6bf9fc86976330ee366a4468a355e",
  "bytecode": "0x608060405234801561001057600080fd5b506135ee806100206000396000f3fe608060405234801561001057600080fd5b506004361061010b5760003560e01c80636352211e116100a2578063a22cb46511610071578063a22cb465146102de578063b88d4fde146102fa578063c87b56dd14610316578063e985e9c514610346578063eb268a0a146103765761010b565b80636352211e1461024257806370a082311461027257806395d89b41146102a25780639f68e0db146102c05761010b565b806323b872dd116100de57806323b872dd146101aa57806342842e0e146101c657806342ec38e2146101e25780635b3e4970146102125761010b565b806301ffc9a71461011057806306fdde0314610140578063081812fc1461015e578063095ea7b31461018e575b600080fd5b61012a60048036038101906101259190611d3e565b610392565b6040516101379190611d86565b60405180910390f35b610148610474565b6040516101559190611e31565b60405180910390f35b61017860048036038101906101739190611e89565b610506565b6040516101859190611ef7565b60405180910390f35b6101a860048036038101906101a39190611f3e565b61054c565b005b6101c460048036038101906101bf9190611f7e565b610663565b005b6101e060048036038101906101db9190611f7e565b610695565b005b6101fc60048036038101906101f79190611fd1565b6106c7565b604051610209919061200d565b60405180910390f35b61022c60048036038101906102279190611fd1565b6106ff565b60405161023991906120f4565b60405180910390f35b61025c60048036038101906102579190611e89565b61088a565b6040516102699190611ef7565b60405180910390f35b61028c60048036038101906102879190611fd1565b6108b1565b604051610299919061200d565b60405180910390f35b6102aa6108e3565b6040516102b79190611e31565b60405180910390f35b6102c8610975565b6040516102d59190612200565b60405180910390f35b6102f860048036038101906102f3919061224e565b610a9d565b005b610314600480360381019061030f91906123c3565b610ab3565b005b610330600480360381019061032b9190611e89565b610ae5565b60405161033d9190611e31565b60405180910390f35b610360600480360381019061035b9190612446565b610b23565b60405161036d9190611d86565b60405180910390f35b610390600480360381019061038b91906127df565b610bb7565b005b60007f80ac58cd000000000000000000000000000000000000000000000000000000007bffffffffffffffffffffffffffffffffffffffffffffffffffffffff1916827bffffffffffffffffffffffffffffffffffffffffffffffffffffffff1916148061045d57507f5b5e139f000000000000000000000000000000000000000000000000000000007bffffffffffffffffffffffffffffffffffffffffffffffffffffffff1916827bffffffffffffffffffffffffffffffffffffffffffffffffffffffff1916145b8061046d575061046c82610eba565b5b9050919050565b60606065805461048390612943565b80601f01602080910402602001604051908101604052809291908181526020018280546104af90612943565b80156104fc5780601f106104d1576101008083540402835291602001916104fc565b820191906000526020600020905b8154815290600101906020018083116104df57829003601f168201915b5050505050905090565b600061051182610f24565b6069600083815260200190815260200160002060009054906101000a900473ffffffffffffffffffffffffffffffffffffffff169050919050565b600061055782610f6f565b90508073ffffffffffffffffffffffffffffffffffffffff168373ffffffffffffffffffffffffffffffffffffffff16036105c7576040517f08c379a00000000000000000000000000000000000000000000000000000000081526004016105be906129e6565b60405180910390fd5b8073ffffffffffffffffffffffffffffffffffffffff166105e6610ff5565b73ffffffffffffffffffffffffffffffffffffffff16148061061557506106148161060f610ff5565b610b23565b5b610654576040517f08c379a000000000000000000000000000000000000000000000000000000000815260040161064b90612a78565b60405180910390fd5b61065e8383610ffd565b505050565b6040517fb47d3f4200000000000000000000000000000000000000000000000000000000815260040160405180910390fd5b6040517fb47d3f4200000000000000000000000000000000000000000000000000000000815260040160405180910390fd5b600060016106d4836108b1565b146106e05760006106f8565b8173ffffffffffffffffffffffffffffffffffffffff165b9050919050565b610707611c82565b60005b6097805490508110156108845760006097828154811061072d5761072c612a98565b5b90600052602060002090600202016040518060600160405290816000820160009054906101000a900473ffffffffffffffffffffffffffffffffffffffff1673ffffffffffffffffffffffffffffffffffffffff1673ffffffffffffffffffffffffffffffffffffffff1681526020016001820160009054906101000a900473ffffffffffffffffffffffffffffffffffffffff1673ffffffffffffffffffffffffffffffffffffffff1673ffffffffffffffffffffffffffffffffffffffff1681526020016001820160149054906101000a9004600b0b600b0b600b0b8152505090506000610846858360200151846000015173ffffffffffffffffffffffffffffffffffffffff166110b69092919063ffffffff16565b905080600b0b8260400151600b0b131580156108665750600081600b0b14155b1561086f578193505b5050808061087c90612af6565b91505061070a565b50919050565b600080829050600161089b826108b1565b146108a75760006108a9565b805b915050919050565b6000806108bd836106ff565b905060008160400151600b0b136108d55760006108d8565b60015b60ff16915050919050565b6060606680546108f290612943565b80601f016020809104026020016040519081016040528092919081815260200182805461091e90612943565b801561096b5780601f106109405761010080835404028352916020019161096b565b820191906000526020600020905b81548152906001019060200180831161094e57829003601f168201915b5050505050905090565b60606097805480602002602001604051908101604052809291908181526020016000905b82821015610a9457838290600052602060002090600202016040518060600160405290816000820160009054906101000a900473ffffffffffffffffffffffffffffffffffffffff1673ffffffffffffffffffffffffffffffffffffffff1673ffffffffffffffffffffffffffffffffffffffff1681526020016001820160009054906101000a900473ffffffffffffffffffffffffffffffffffffffff1673ffffffffffffffffffffffffffffffffffffffff1673ffffffffffffffffffffffffffffffffffffffff1681526020016001820160149054906101000a9004600b0b600b0b600b0b8152505081526020019060010190610999565b50505050905090565b610aaf610aa8610ff5565b8383611156565b5050565b6040517fb47d3f4200000000000000000000000000000000000000000000000000000000815260040160405180910390fd5b606060008290506000610af7826108b1565b14610b0a57610b05816112c2565b610b1b565b604051806020016040528060008152505b915050919050565b6000606a60008473ffffffffffffffffffffffffffffffffffffffff1673ffffffffffffffffffffffffffffffffffffffff16815260200190815260200160002060008373ffffffffffffffffffffffffffffffffffffffff1673ffffffffffffffffffffffffffffffffffffffff16815260200190815260200160002060009054906101000a900460ff16905092915050565b60008060019054906101000a900460ff16159050808015610be85750600160008054906101000a900460ff1660ff16105b80610c155750610bf73061139c565b158015610c145750600160008054906101000a900460ff1660ff16145b5b610c54576040517f08c379a0000000000000000000000000000000000000000000000000000000008152600401610c4b90612bb0565b60405180910390fd5b60016000806101000a81548160ff021916908360ff1602179055508015610c91576001600060016101000a81548160ff0219169083151502179055505b610c9b84846113bf565b60005b8751811015610e5757609760405180606001604052808a8481518110610cc757610cc6612a98565b5b602002602001015173ffffffffffffffffffffffffffffffffffffffff168152602001898481518110610cfd57610cfc612a98565b5b602002602001015173ffffffffffffffffffffffffffffffffffffffff168152602001888481518110610d3357610d32612a98565b5b6020026020010151600b0b815250908060018154018082558091505060019003906000526020600020906002020160009091909190915060008201518160000160006101000a81548173ffffffffffffffffffffffffffffffffffffffff021916908373ffffffffffffffffffffffffffffffffffffffff16021790555060208201518160010160006101000a81548173ffffffffffffffffffffffffffffffffffffffff021916908373ffffffffffffffffffffffffffffffffffffffff16021790555060408201518160010160146101000a8154816bffffffffffffffffffffffff0219169083600b0b6bffffffffffffffffffffffff16021790555050508260989081610e439190612d72565b508080610e4f90612af6565b915050610c9e565b508015610eb15760008060016101000a81548160ff0219169083151502179055507f7f26b83ff96e1f2b6a682f133852f6798a09c465da95921460cefb38474024986001604051610ea89190612e8c565b60405180910390a15b50505050505050565b60007f01ffc9a7000000000000000000000000000000000000000000000000000000007bffffffffffffffffffffffffffffffffffffffffffffffffffffffff1916827bffffffffffffffffffffffffffffffffffffffffffffffffffffffff1916149050919050565b610f2d8161141c565b610f6c576040517f08c379a0000000000000000000000000000000000000000000000000000000008152600401610f6390612ef3565b60405180910390fd5b50565b600080610f7b8361145d565b9050600073ffffffffffffffffffffffffffffffffffffffff168173ffffffffffffffffffffffffffffffffffffffff1603610fec576040517f08c379a0000000000000000000000000000000000000000000000000000000008152600401610fe390612ef3565b60405180910390fd5b80915050919050565b600033905090565b816069600083815260200190815260200160002060006101000a81548173ffffffffffffffffffffffffffffffffffffffff021916908373ffffffffffffffffffffffffffffffffffffffff160217905550808273ffffffffffffffffffffffffffffffffffffffff1661107083610f6f565b73ffffffffffffffffffffffffffffffffffffffff167f8c5be1e5ebec7d5bd14f71427d1e84f3dd0314c0f7b2291e5b200ac8c7c3b92560405160405180910390a45050565b6000806110c28561149a565b9150508073ffffffffffffffffffffffffffffffffffffffff1663e6a1e8888686866040518463ffffffff1660e01b815260040161110293929190612f22565b608060405180830381865afa15801561111f573d6000803e3d6000fd5b505050506040513d601f19601f820116820180604052508101906111439190612f83565b9091925090505080925050509392505050565b8173ffffffffffffffffffffffffffffffffffffffff168373ffffffffffffffffffffffffffffffffffffffff16036111c4576040517f08c379a00000000000000000000000000000000000000000000000000000000081526004016111bb90613036565b60405180910390fd5b80606a60008573ffffffffffffffffffffffffffffffffffffffff1673ffffffffffffffffffffffffffffffffffffffff16815260200190815260200160002060008473ffffffffffffffffffffffffffffffffffffffff1673ffffffffffffffffffffffffffffffffffffffff16815260200190815260200160002060006101000a81548160ff0219169083151502179055508173ffffffffffffffffffffffffffffffffffffffff168373ffffffffffffffffffffffffffffffffffffffff167f17307eab39ab6107e8899845ad3d59bd9653f200f220920489ca2b5937696c31836040516112b59190611d86565b60405180910390a3505050565b606060006112cf836106ff565b905060986112db6108e3565b6112fe836000015173ffffffffffffffffffffffffffffffffffffffff166116db565b61131d8673ffffffffffffffffffffffffffffffffffffffff166116db565b611340856020015173ffffffffffffffffffffffffffffffffffffffff166116db565b6113508660400151600b0b611708565b61136f3073ffffffffffffffffffffffffffffffffffffffff166116db565b60405160200161138597969594939291906131f9565b604051602081830303815290604052915050919050565b6000808273ffffffffffffffffffffffffffffffffffffffff163b119050919050565b600060019054906101000a900460ff1661140e576040517f08c379a00000000000000000000000000000000000000000000000000000000081526004016114059061332a565b60405180910390fd5b6114188282611796565b5050565b60008073ffffffffffffffffffffffffffffffffffffffff1661143e8361145d565b73ffffffffffffffffffffffffffffffffffffffff1614159050919050565b60006067600083815260200190815260200160002060009054906101000a900473ffffffffffffffffffffffffffffffffffffffff169050919050565b6000807f65599bf746e17a00ea62e3610586992d88101b78eec3cf380706621fb97ea8375491507fb969d79d88acd02d04ed7ee7d43b949e7daf093d363abcfbbc43dfdfd1ce969a549050600073ffffffffffffffffffffffffffffffffffffffff168173ffffffffffffffffffffffffffffffffffffffff160361165c57600073ffffffffffffffffffffffffffffffffffffffff168273ffffffffffffffffffffffffffffffffffffffff16036115bf578273ffffffffffffffffffffffffffffffffffffffff166320bc44256040518163ffffffff1660e01b8152600401602060405180830381865afa158015611598573d6000803e3d6000fd5b505050506040513d601f19601f820116820180604052508101906115bc919061335f565b91505b8173ffffffffffffffffffffffffffffffffffffffff1663b6d200de7fa9214cc96615e0085d3bb077758db69497dc2dce3b2b1e97bc93c3d18d83efd36040518263ffffffff1660e01b815260040161161891906133a5565b602060405180830381865afa158015611635573d6000803e3d6000fd5b505050506040513d601f19601f8201168201806040525081019061165991906133fe565b90505b600073ffffffffffffffffffffffffffffffffffffffff168273ffffffffffffffffffffffffffffffffffffffff16036116995761169861342b565b5b600073ffffffffffffffffffffffffffffffffffffffff168173ffffffffffffffffffffffffffffffffffffffff16036116d6576116d561342b565b5b915091565b60606117018273ffffffffffffffffffffffffffffffffffffffff16601460ff16611809565b9050919050565b606060008212611727576040518060200160405280600081525061175e565b6040518060400160405280600181526020017f2d000000000000000000000000000000000000000000000000000000000000008152505b61176f61176a84611a45565b611a61565b60405160200161178092919061345a565b6040516020818303038152906040529050919050565b600060019054906101000a900460ff166117e5576040517f08c379a00000000000000000000000000000000000000000000000000000000081526004016117dc9061332a565b60405180910390fd5b81606590816117f49190612d72565b5080606690816118049190612d72565b505050565b60606000600283600261181c919061347e565b61182691906134c0565b67ffffffffffffffff81111561183f5761183e612298565b5b6040519080825280601f01601f1916602001820160405280156118715781602001600182028036833780820191505090505b5090507f3000000000000000000000000000000000000000000000000000000000000000816000815181106118a9576118a8612a98565b5b60200101907effffffffffffffffffffffffffffffffffffffffffffffffffffffffffffff1916908160001a9053507f78000000000000000000000000000000000000000000000000000000000000008160018151811061190d5761190c612a98565b5b60200101907effffffffffffffffffffffffffffffffffffffffffffffffffffffffffffff1916908160001a9053506000600184600261194d919061347e565b61195791906134c0565b90505b60018111156119f7577f3031323334353637383961626364656600000000000000000000000000000000600f86166010811061199957611998612a98565b5b1a60f81b8282815181106119b0576119af612a98565b5b60200101907effffffffffffffffffffffffffffffffffffffffffffffffffffffffffffff1916908160001a905350600485901c9450806119f0906134f4565b905061195a565b5060008414611a3b576040517f08c379a0000000000000000000000000000000000000000000000000000000008152600401611a3290613569565b60405180910390fd5b8091505092915050565b600080821215611a585781600003611a5a565b815b9050919050565b606060006001611a7084611b2f565b01905060008167ffffffffffffffff811115611a8f57611a8e612298565b5b6040519080825280601f01601f191660200182016040528015611ac15781602001600182028036833780820191505090505b509050600082602001820190505b600115611b24578080600190039150507f3031323334353637383961626364656600000000000000000000000000000000600a86061a8153600a8581611b1857611b17613589565b5b04945060008503611acf575b819350505050919050565b600080600090507a184f03e93ff9f4daa797ed6e38ed64bf6a1f0100000000000000008310611b8d577a184f03e93ff9f4daa797ed6e38ed64bf6a1f0100000000000000008381611b8357611b82613589565b5b0492506040810190505b6d04ee2d6d415b85acef81000000008310611bca576d04ee2d6d415b85acef81000000008381611bc057611bbf613589565b5b0492506020810190505b662386f26fc100008310611bf957662386f26fc100008381611bef57611bee613589565b5b0492506010810190505b6305f5e1008310611c22576305f5e1008381611c1857611c17613589565b5b0492506008810190505b6127108310611c47576127108381611c3d57611c3c613589565b5b0492506004810190505b60648310611c6a5760648381611c6057611c5f613589565b5b0492506002810190505b600a8310611c79576001810190505b80915050919050565b6040518060600160405280600073ffffffffffffffffffffffffffffffffffffffff168152602001600073ffffffffffffffffffffffffffffffffffffffff1681526020016000600b0b81525090565b6000604051905090565b600080fd5b600080fd5b60007fffffffff0000000000000000000000000000000000000000000000000000000082169050919050565b611d1b81611ce6565b8114611d2657600080fd5b50565b600081359050611d3881611d12565b92915050565b600060208284031215611d5457611d53611cdc565b5b6000611d6284828501611d29565b91505092915050565b60008115159050919050565b611d8081611d6b565b82525050565b6000602082019050611d9b6000830184611d77565b92915050565b600081519050919050565b600082825260208201905092915050565b60005b83811015611ddb578082015181840152602081019050611dc0565b60008484015250505050565b6000601f19601f8301169050919050565b6000611e0382611da1565b611e0d8185611dac565b9350611e1d818560208601611dbd565b611e2681611de7565b840191505092915050565b60006020820190508181036000830152611e4b8184611df8565b905092915050565b6000819050919050565b611e6681611e53565b8114611e7157600080fd5b50565b600081359050611e8381611e5d565b92915050565b600060208284031215611e9f57611e9e611cdc565b5b6000611ead84828501611e74565b91505092915050565b600073ffffffffffffffffffffffffffffffffffffffff82169050919050565b6000611ee182611eb6565b9050919050565b611ef181611ed6565b82525050565b6000602082019050611f0c6000830184611ee8565b92915050565b611f1b81611ed6565b8114611f2657600080fd5b50565b600081359050611f3881611f12565b92915050565b60008060408385031215611f5557611f54611cdc565b5b6000611f6385828601611f29565b9250506020611f7485828601611e74565b9150509250929050565b600080600060608486031215611f9757611f96611cdc565b5b6000611fa586828701611f29565b9350506020611fb686828701611f29565b9250506040611fc786828701611e74565b9150509250925092565b600060208284031215611fe757611fe6611cdc565b5b6000611ff584828501611f29565b91505092915050565b61200781611e53565b82525050565b60006020820190506120226000830184611ffe565b92915050565b6000819050919050565b600061204d61204861204384611eb6565b612028565b611eb6565b9050919050565b600061205f82612032565b9050919050565b600061207182612054565b9050919050565b61208181612066565b82525050565b61209081611ed6565b82525050565b600081600b0b9050919050565b6120ac81612096565b82525050565b6060820160008201516120c86000850182612078565b5060208201516120db6020850182612087565b5060408201516120ee60408501826120a3565b50505050565b600060608201905061210960008301846120b2565b92915050565b600081519050919050565b600082825260208201905092915050565b6000819050602082019050919050565b6060820160008201516121516000850182612078565b5060208201516121646020850182612087565b50604082015161217760408501826120a3565b50505050565b6000612189838361213b565b60608301905092915050565b6000602082019050919050565b60006121ad8261210f565b6121b7818561211a565b93506121c28361212b565b8060005b838110156121f35781516121da888261217d565b97506121e583612195565b9250506001810190506121c6565b5085935050505092915050565b6000602082019050818103600083015261221a81846121a2565b905092915050565b61222b81611d6b565b811461223657600080fd5b50565b60008135905061224881612222565b92915050565b6000806040838503121561226557612264611cdc565b5b600061227385828601611f29565b925050602061228485828601612239565b9150509250929050565b600080fd5b600080fd5b7f4e487b7100000000000000000000000000000000000000000000000000000000600052604160045260246000fd5b6122d082611de7565b810181811067ffffffffffffffff821117156122ef576122ee612298565b5b80604052505050565b6000612302611cd2565b905061230e82826122c7565b919050565b600067ffffffffffffffff82111561232e5761232d612298565b5b61233782611de7565b9050602081019050919050565b82818337600083830152505050565b600061236661236184612313565b6122f8565b90508281526020810184848401111561238257612381612293565b5b61238d848285612344565b509392505050565b600082601f8301126123aa576123a961228e565b5b81356123ba848260208601612353565b91505092915050565b600080600080608085870312156123dd576123dc611cdc565b5b60006123eb87828801611f29565b94505060206123fc87828801611f29565b935050604061240d87828801611e74565b925050606085013567ffffffffffffffff81111561242e5761242d611ce1565b5b61243a87828801612395565b91505092959194509250565b6000806040838503121561245d5761245c611cdc565b5b600061246b85828601611f29565b925050602061247c85828601611f29565b9150509250929050565b600067ffffffffffffffff8211156124a1576124a0612298565b5b602082029050602081019050919050565b600080fd5b60006124c282611ed6565b9050919050565b6124d2816124b7565b81146124dd57600080fd5b50565b6000813590506124ef816124c9565b92915050565b600061250861250384612486565b6122f8565b9050808382526020820190506020840283018581111561252b5761252a6124b2565b5b835b81811015612554578061254088826124e0565b84526020840193505060208101905061252d565b5050509392505050565b600082601f8301126125735761257261228e565b5b81356125838482602086016124f5565b91505092915050565b600067ffffffffffffffff8211156125a7576125a6612298565b5b602082029050602081019050919050565b60006125cb6125c68461258c565b6122f8565b905080838252602082019050602084028301858111156125ee576125ed6124b2565b5b835b8181101561261757806126038882611f29565b8452602084019350506020810190506125f0565b5050509392505050565b600082601f8301126126365761263561228e565b5b81356126468482602086016125b8565b91505092915050565b600067ffffffffffffffff82111561266a57612669612298565b5b602082029050602081019050919050565b61268481612096565b811461268f57600080fd5b50565b6000813590506126a18161267b565b92915050565b60006126ba6126b58461264f565b6122f8565b905080838252602082019050602084028301858111156126dd576126dc6124b2565b5b835b8181101561270657806126f28882612692565b8452602084019350506020810190506126df565b5050509392505050565b600082601f8301126127255761272461228e565b5b81356127358482602086016126a7565b91505092915050565b600067ffffffffffffffff82111561275957612758612298565b5b61276282611de7565b9050602081019050919050565b600061278261277d8461273e565b6122f8565b90508281526020810184848401111561279e5761279d612293565b5b6127a9848285612344565b509392505050565b600082601f8301126127c6576127c561228e565b5b81356127d684826020860161276f565b91505092915050565b60008060008060008060c087890312156127fc576127fb611cdc565b5b600087013567ffffffffffffffff81111561281a57612819611ce1565b5b61282689828a0161255e565b965050602087013567ffffffffffffffff81111561284757612846611ce1565b5b61285389828a01612621565b955050604087013567ffffffffffffffff81111561287457612873611ce1565b5b61288089828a01612710565b945050606087013567ffffffffffffffff8111156128a1576128a0611ce1565b5b6128ad89828a016127b1565b935050608087013567ffffffffffffffff8111156128ce576128cd611ce1565b5b6128da89828a016127b1565b92505060a087013567ffffffffffffffff8111156128fb576128fa611ce1565b5b61290789828a016127b1565b9150509295509295509295565b7f4e487b7100000000000000000000000000000000000000000000000000000000600052602260045260246000fd5b6000600282049050600182168061295b57607f821691505b60208210810361296e5761296d612914565b5b50919050565b7f4552433732313a20617070726f76616c20746f2063757272656e74206f776e6560008201527f7200000000000000000000000000000000000000000000000000000000000000602082015250565b60006129d0602183611dac565b91506129db82612974565b604082019050919050565b600060208201905081810360008301526129ff816129c3565b9050919050565b7f4552433732313a20617070726f76652063616c6c6572206973206e6f7420746f60008201527f6b656e206f776e6572206f7220617070726f76656420666f7220616c6c000000602082015250565b6000612a62603d83611dac565b9150612a6d82612a06565b604082019050919050565b60006020820190508181036000830152612a9181612a55565b9050919050565b7f4e487b7100000000000000000000000000000000000000000000000000000000600052603260045260246000fd5b7f4e487b7100000000000000000000000000000000000000000000000000000000600052601160045260246000fd5b6000612b0182611e53565b91507fffffffffffffffffffffffffffffffffffffffffffffffffffffffffffffffff8203612b3357612b32612ac7565b5b600182019050919050565b7f496e697469616c697a61626c653a20636f6e747261637420697320616c72656160008201527f647920696e697469616c697a6564000000000000000000000000000000000000602082015250565b6000612b9a602e83611dac565b9150612ba582612b3e565b604082019050919050565b60006020820190508181036000830152612bc981612b8d565b9050919050565b60008190508160005260206000209050919050565b60006020601f8301049050919050565b600082821b905092915050565b600060088302612c327fffffffffffffffffffffffffffffffffffffffffffffffffffffffffffffffff82612bf5565b612c3c8683612bf5565b95508019841693508086168417925050509392505050565b6000612c6f612c6a612c6584611e53565b612028565b611e53565b9050919050565b6000819050919050565b612c8983612c54565b612c9d612c9582612c76565b848454612c02565b825550505050565b600090565b612cb2612ca5565b612cbd818484612c80565b505050565b5b81811015612ce157612cd6600082612caa565b600181019050612cc3565b5050565b601f821115612d2657612cf781612bd0565b612d0084612be5565b81016020851015612d0f578190505b612d23612d1b85612be5565b830182612cc2565b50505b505050565b600082821c905092915050565b6000612d4960001984600802612d2b565b1980831691505092915050565b6000612d628383612d38565b9150826002028217905092915050565b612d7b82611da1565b67ffffffffffffffff811115612d9457612d93612298565b5b612d9e8254612943565b612da9828285612ce5565b600060209050601f831160018114612ddc5760008415612dca578287015190505b612dd48582612d56565b865550612e3c565b601f198416612dea86612bd0565b60005b82811015612e1257848901518255600182019150602085019450602081019050612ded565b86831015612e2f5784890151612e2b601f891682612d38565b8355505b6001600288020188555050505b505050505050565b6000819050919050565b600060ff82169050919050565b6000612e76612e71612e6c84612e44565b612028565b612e4e565b9050919050565b612e8681612e5b565b82525050565b6000602082019050612ea16000830184612e7d565b92915050565b7f4552433732313a20696e76616c696420746f6b656e2049440000000000000000600082015250565b6000612edd601883611dac565b9150612ee882612ea7565b602082019050919050565b60006020820190508181036000830152612f0c81612ed0565b9050919050565b612f1c81612066565b82525050565b6000606082019050612f376000830186612f13565b612f446020830185611ee8565b612f516040830184611ee8565b949350505050565b600081519050612f6881611e5d565b92915050565b600081519050612f7d8161267b565b92915050565b60008060008060808587031215612f9d57612f9c611cdc565b5b6000612fab87828801612f59565b9450506020612fbc87828801612f6e565b9350506040612fcd87828801612f59565b9250506060612fde87828801612f59565b91505092959194509250565b7f4552433732313a20617070726f766520746f2063616c6c657200000000000000600082015250565b6000613020601983611dac565b915061302b82612fea565b602082019050919050565b6000602082019050818103600083015261304f81613013565b9050919050565b600081905092915050565b6000815461306e81612943565b6130788186613056565b9450600182166000811461309357600181146130a8576130db565b60ff19831686528115158202860193506130db565b6130b185612bd0565b60005b838110156130d3578154818901526001820191506020810190506130b4565b838801955050505b50505092915050565b7f2673796d626f6c3d000000000000000000000000000000000000000000000000815250565b600061311582611da1565b61311f8185613056565b935061312f818560208601611dbd565b80840191505092915050565b7f26746f6b656e3d00000000000000000000000000000000000000000000000000815250565b7f2673656e6465723d000000000000000000000000000000000000000000000000815250565b7f26726563697069656e743d000000000000000000000000000000000000000000815250565b7f26666c6f77726174653d00000000000000000000000000000000000000000000815250565b7f26636c6f6e653d00000000000000000000000000000000000000000000000000815250565b6000613205828a613061565b9150613210826130e4565b600882019150613220828961310a565b915061322b8261313b565b60078201915061323b828861310a565b915061324682613161565b600882019150613256828761310a565b915061326182613187565b600b82019150613271828661310a565b915061327c826131ad565b600a8201915061328c828561310a565b9150613297826131d3565b6007820191506132a7828461310a565b915081905098975050505050505050565b7f496e697469616c697a61626c653a20636f6e7472616374206973206e6f74206960008201527f6e697469616c697a696e67000000000000000000000000000000000000000000602082015250565b6000613314602b83611dac565b915061331f826132b8565b604082019050919050565b6000602082019050818103600083015261334381613307565b9050919050565b60008151905061335981611f12565b92915050565b60006020828403121561337557613374611cdc565b5b60006133838482850161334a565b91505092915050565b6000819050919050565b61339f8161338c565b82525050565b60006020820190506133ba6000830184613396565b92915050565b60006133cb82611ed6565b9050919050565b6133db816133c0565b81146133e657600080fd5b50565b6000815190506133f8816133d2565b92915050565b60006020828403121561341457613413611cdc565b5b6000613422848285016133e9565b91505092915050565b7f4e487b7100000000000000000000000000000000000000000000000000000000600052600160045260246000fd5b6000613466828561310a565b9150613472828461310a565b91508190509392505050565b600061348982611e53565b915061349483611e53565b92508282026134a281611e53565b915082820484148315176134b9576134b8612ac7565b5b5092915050565b60006134cb82611e53565b91506134d683611e53565b92508282019050808211156134ee576134ed612ac7565b5b92915050565b60006134ff82611e53565b91506000820361351257613511612ac7565b5b600182039050919050565b7f537472696e67733a20686578206c656e67746820696e73756666696369656e74600082015250565b6000613553602083611dac565b915061355e8261351d565b602082019050919050565b6000602082019050818103600083015261358281613546565b9050919050565b7f4e487b7100000000000000000000000000000000000000000000000000000000600052601260045260246000fdfea2646970667358221220b228bee18e59aa13deb86b0e58ccf0e238a8c1e35112caca00ebd3eda8a9c3d164736f6c63430008130033",
  "devdoc": {
    "author": "Superfluid Finance",
    "details": "Mirrors the Superfluid Checkout-Builder interface",
    "events": {
      "Approval(address,address,uint256)": {
        "details": "Emitted when `owner` enables `approved` to manage the `tokenId` token."
      },
      "ApprovalForAll(address,address,bool)": {
        "details": "Emitted when `owner` enables or disables (`approved`) `operator` to manage all of its assets."
      },
      "Initialized(uint8)": {
        "details": "Triggered when the contract has been initialized or reinitialized."
      },
      "Transfer(address,address,uint256)": {
        "details": "Emitted when `tokenId` token is transferred from `from` to `to`."
      }
    },
    "kind": "dev",
    "methods": {
      "approve(address,uint256)": {
        "details": "See {IERC721-approve}."
      },
      "balanceOf(address)": {
        "details": "See {IERC721-balanceOf}.",
        "returns": {
          "_0": "1 if the owner has a positive flow rate, 0 otherwise"
        }
      },
      "getApproved(uint256)": {
        "details": "See {IERC721-getApproved}."
      },
      "getPaymentOptionFor(address)": {
        "details": "@param result is initialized as an empty PaymentOption, so that if no match is found, an empty PaymentOption is returned",
        "params": {
          "owner": "-  the address of the owner",
          "result": ", the loop is not broken, so that the last match is returned."
        },
        "returns": {
          "result": "PaymentOption - the PaymentOption that matches the owner or an empty PaymentOption"
        }
      },
      "getPaymentOptions()": {
        "returns": {
          "_0": "PaymentOption[] - all configured PaymentOptions"
        }
      },
      "initialize(address[],address[],int96[],string,string,string)": {
        "details": "Array parameters should be the same size."
      },
      "isApprovedForAll(address,address)": {
        "details": "See {IERC721-isApprovedForAll}."
      },
      "name()": {
        "details": "See {IERC721Metadata-name}."
      },
      "ownerOf(uint256)": {
        "params": {
          "tokenId": "- is the address of the owner"
        },
        "returns": {
          "_0": "@param owner - if they have a positive flow rate, otherwise zero address"
        }
      },
      "safeTransferFrom(address,address,uint256)": {
        "details": "See {IERC721-safeTransferFrom}"
      },
      "safeTransferFrom(address,address,uint256,bytes)": {
        "details": "See {IERC721-safeTransferFrom}"
      },
      "setApprovalForAll(address,bool)": {
        "details": "See {IERC721-setApprovalForAll}."
      },
      "supportsInterface(bytes4)": {
        "details": "See {IERC165-supportsInterface}."
      },
      "symbol()": {
        "details": "See {IERC721Metadata-symbol}."
      },
      "tokenOf(address)": {
        "details": "one address can own only one token",
        "params": {
          "owner": "- is the address of the owner"
        },
        "returns": {
          "_0": "tokenId - the address converted to uint256, 0 if the owner has no positive flow rate"
        }
      },
      "tokenURI(uint256)": {
        "details": "See {IERC721-tokenURI}.",
        "params": {
          "tokenId": "- is the address of the owner"
        },
        "returns": {
          "_0": "tokenURI - the global URI of the NFT set at deployment"
        }
      },
      "transferFrom(address,address,uint256)": {
        "details": "See {IERC721-transferFrom}."
      }
    },
    "version": 1
  },
  "userdoc": {
    "kind": "user",
    "methods": {
      "balanceOf(address)": {
        "notice": "Overridden balanceOf, returning a value depending on the flow rate of the owner"
      },
      "getPaymentOptionFor(address)": {
        "notice": "match the owner to a PaymentOption"
      },
      "getPaymentOptions()": {
        "notice": "get all configured PaymentOptions"
      },
      "initialize(address[],address[],int96[],string,string,string)": {
        "notice": "Initializes the contract setting the given PaymentOptions"
      },
      "ownerOf(uint256)": {
        "notice": "Overridden ownerOf, determines the owner, depending flow rate"
      },
      "safeTransferFrom(address,address,uint256)": {
        "notice": "This NFT is not transferable"
      },
      "safeTransferFrom(address,address,uint256,bytes)": {
        "notice": "This NFT is not transferable"
      },
      "tokenOf(address)": {
        "notice": "get the tokenId for an owner"
      },
      "tokenURI(uint256)": {
        "notice": "Overridden tokenURI, returning the URI set at deployment"
      },
      "transferFrom(address,address,uint256)": {
        "notice": "This NFT is not transferable"
      }
    },
    "notice": "Non-mintable NFT contract that is owned by a user as long as they have a positive flow rate",
    "version": 1
  },
  "storageLayout": {
    "storage": [
      {
        "astId": 6,
        "contract": "contracts/ExistentialNFT.sol:ExistentialNFT",
        "label": "_initialized",
        "offset": 0,
        "slot": "0",
        "type": "t_uint8"
      },
      {
        "astId": 9,
        "contract": "contracts/ExistentialNFT.sol:ExistentialNFT",
        "label": "_initializing",
        "offset": 1,
        "slot": "0",
        "type": "t_bool"
      },
      {
        "astId": 1652,
        "contract": "contracts/ExistentialNFT.sol:ExistentialNFT",
        "label": "__gap",
        "offset": 0,
        "slot": "1",
        "type": "t_array(t_uint256)50_storage"
      },
      {
        "astId": 1925,
        "contract": "contracts/ExistentialNFT.sol:ExistentialNFT",
        "label": "__gap",
        "offset": 0,
        "slot": "51",
        "type": "t_array(t_uint256)50_storage"
      },
      {
        "astId": 197,
        "contract": "contracts/ExistentialNFT.sol:ExistentialNFT",
        "label": "_name",
        "offset": 0,
        "slot": "101",
        "type": "t_string_storage"
      },
      {
        "astId": 199,
        "contract": "contracts/ExistentialNFT.sol:ExistentialNFT",
        "label": "_symbol",
        "offset": 0,
        "slot": "102",
        "type": "t_string_storage"
      },
      {
        "astId": 203,
        "contract": "contracts/ExistentialNFT.sol:ExistentialNFT",
        "label": "_owners",
        "offset": 0,
        "slot": "103",
        "type": "t_mapping(t_uint256,t_address)"
      },
      {
        "astId": 207,
        "contract": "contracts/ExistentialNFT.sol:ExistentialNFT",
        "label": "_balances",
        "offset": 0,
        "slot": "104",
        "type": "t_mapping(t_address,t_uint256)"
      },
      {
        "astId": 211,
        "contract": "contracts/ExistentialNFT.sol:ExistentialNFT",
        "label": "_tokenApprovals",
        "offset": 0,
        "slot": "105",
        "type": "t_mapping(t_uint256,t_address)"
      },
      {
        "astId": 217,
        "contract": "contracts/ExistentialNFT.sol:ExistentialNFT",
        "label": "_operatorApprovals",
        "offset": 0,
        "slot": "106",
        "type": "t_mapping(t_address,t_mapping(t_address,t_bool))"
      },
      {
        "astId": 1119,
        "contract": "contracts/ExistentialNFT.sol:ExistentialNFT",
        "label": "__gap",
        "offset": 0,
        "slot": "107",
        "type": "t_array(t_uint256)44_storage"
      },
      {
        "astId": 10988,
        "contract": "contracts/ExistentialNFT.sol:ExistentialNFT",
        "label": "paymentOptions",
        "offset": 0,
        "slot": "151",
        "type": "t_array(t_struct(PaymentOption)10971_storage)dyn_storage"
      },
      {
        "astId": 10990,
        "contract": "contracts/ExistentialNFT.sol:ExistentialNFT",
        "label": "baseURI",
        "offset": 0,
        "slot": "152",
        "type": "t_string_storage"
      }
    ],
    "types": {
      "t_address": {
        "encoding": "inplace",
        "label": "address",
        "numberOfBytes": "20"
      },
      "t_array(t_struct(PaymentOption)10971_storage)dyn_storage": {
        "base": "t_struct(PaymentOption)10971_storage",
        "encoding": "dynamic_array",
        "label": "struct PaymentOption[]",
        "numberOfBytes": "32"
      },
      "t_array(t_uint256)44_storage": {
        "base": "t_uint256",
        "encoding": "inplace",
        "label": "uint256[44]",
        "numberOfBytes": "1408"
      },
      "t_array(t_uint256)50_storage": {
        "base": "t_uint256",
        "encoding": "inplace",
        "label": "uint256[50]",
        "numberOfBytes": "1600"
      },
      "t_bool": {
        "encoding": "inplace",
        "label": "bool",
        "numberOfBytes": "1"
      },
      "t_contract(ISuperToken)9793": {
        "encoding": "inplace",
        "label": "contract ISuperToken",
        "numberOfBytes": "20"
      },
      "t_int96": {
        "encoding": "inplace",
        "label": "int96",
        "numberOfBytes": "12"
      },
      "t_mapping(t_address,t_bool)": {
        "encoding": "mapping",
        "key": "t_address",
        "label": "mapping(address => bool)",
        "numberOfBytes": "32",
        "value": "t_bool"
      },
      "t_mapping(t_address,t_mapping(t_address,t_bool))": {
        "encoding": "mapping",
        "key": "t_address",
        "label": "mapping(address => mapping(address => bool))",
        "numberOfBytes": "32",
        "value": "t_mapping(t_address,t_bool)"
      },
      "t_mapping(t_address,t_uint256)": {
        "encoding": "mapping",
        "key": "t_address",
        "label": "mapping(address => uint256)",
        "numberOfBytes": "32",
        "value": "t_uint256"
      },
      "t_mapping(t_uint256,t_address)": {
        "encoding": "mapping",
        "key": "t_uint256",
        "label": "mapping(uint256 => address)",
        "numberOfBytes": "32",
        "value": "t_address"
      },
      "t_string_storage": {
        "encoding": "bytes",
        "label": "string",
        "numberOfBytes": "32"
      },
      "t_struct(PaymentOption)10971_storage": {
        "encoding": "inplace",
        "label": "struct PaymentOption",
        "members": [
          {
            "astId": 10966,
            "contract": "contracts/ExistentialNFT.sol:ExistentialNFT",
            "label": "incomingFlowToken",
            "offset": 0,
            "slot": "0",
            "type": "t_contract(ISuperToken)9793"
          },
          {
            "astId": 10968,
            "contract": "contracts/ExistentialNFT.sol:ExistentialNFT",
            "label": "recipient",
            "offset": 0,
            "slot": "1",
            "type": "t_address"
          },
          {
            "astId": 10970,
            "contract": "contracts/ExistentialNFT.sol:ExistentialNFT",
            "label": "requiredFlowRate",
            "offset": 20,
            "slot": "1",
            "type": "t_int96"
          }
        ],
        "numberOfBytes": "64"
      },
      "t_uint256": {
        "encoding": "inplace",
        "label": "uint256",
        "numberOfBytes": "32"
      },
      "t_uint8": {
        "encoding": "inplace",
        "label": "uint8",
        "numberOfBytes": "1"
      }
    }
  }
}